{
  "address": "0x8327CE076DE89A8140cfEa67A939f43F7225638B",
  "abi": [
    {
      "inputs": [
        {
          "internalType": "address",
          "name": "_underlying",
          "type": "address"
        }
      ],
      "stateMutability": "nonpayable",
      "type": "constructor"
    },
    {
      "inputs": [
        {
          "internalType": "bytes32",
          "name": "handle",
          "type": "bytes32"
        },
        {
          "internalType": "address",
          "name": "sender",
          "type": "address"
        }
      ],
      "name": "SenderNotAllowedToUseHandle",
      "type": "error"
    },
    {
      "inputs": [],
      "name": "ZamaProtocolUnsupported",
      "type": "error"
    },
    {
      "inputs": [],
      "name": "ZeroAddress",
      "type": "error"
    },
    {
      "inputs": [],
      "name": "ZeroAmount",
      "type": "error"
    },
    {
      "anonymous": false,
      "inputs": [
        {
          "indexed": true,
          "internalType": "address",
          "name": "owner",
          "type": "address"
        },
        {
          "indexed": true,
          "internalType": "address",
          "name": "spender",
          "type": "address"
        }
      ],
      "name": "Approval",
      "type": "event"
    },
    {
      "anonymous": false,
      "inputs": [
        {
          "indexed": true,
          "internalType": "address",
          "name": "from",
          "type": "address"
        },
        {
          "indexed": true,
          "internalType": "address",
          "name": "to",
          "type": "address"
        }
      ],
      "name": "Transfer",
      "type": "event"
    },
    {
      "anonymous": false,
      "inputs": [
        {
          "indexed": true,
          "internalType": "address",
          "name": "user",
          "type": "address"
        },
        {
          "indexed": false,
          "internalType": "uint256",
          "name": "amount",
          "type": "uint256"
        }
      ],
      "name": "Unwrap",
      "type": "event"
    },
    {
      "anonymous": false,
      "inputs": [
        {
          "indexed": true,
          "internalType": "address",
          "name": "user",
          "type": "address"
        },
        {
          "indexed": false,
          "internalType": "uint256",
          "name": "amount",
          "type": "uint256"
        }
      ],
      "name": "Wrap",
      "type": "event"
    },
    {
      "inputs": [],
      "name": "SCALING_FACTOR",
      "outputs": [
        {
          "internalType": "uint256",
          "name": "",
          "type": "uint256"
        }
      ],
      "stateMutability": "view",
      "type": "function"
    },
    {
      "inputs": [
        {
          "internalType": "address",
          "name": "owner",
          "type": "address"
        },
        {
          "internalType": "address",
          "name": "spender",
          "type": "address"
        }
      ],
      "name": "allowance",
      "outputs": [
        {
          "internalType": "euint64",
          "name": "",
          "type": "bytes32"
        }
      ],
      "stateMutability": "view",
      "type": "function"
    },
    {
      "inputs": [
        {
          "internalType": "address",
          "name": "spender",
          "type": "address"
        },
        {
          "internalType": "externalEuint64",
          "name": "encryptedAmount",
          "type": "bytes32"
        },
        {
          "internalType": "bytes",
          "name": "inputProof",
          "type": "bytes"
        }
      ],
      "name": "approve",
      "outputs": [
        {
          "internalType": "bool",
          "name": "",
          "type": "bool"
        }
      ],
      "stateMutability": "nonpayable",
      "type": "function"
    },
    {
      "inputs": [
        {
          "internalType": "address",
          "name": "account",
          "type": "address"
        }
      ],
      "name": "balanceOf",
      "outputs": [
        {
          "internalType": "euint64",
          "name": "",
          "type": "bytes32"
        }
      ],
      "stateMutability": "view",
      "type": "function"
    },
    {
      "inputs": [],
      "name": "confidentialProtocolId",
      "outputs": [
        {
          "internalType": "uint256",
          "name": "",
          "type": "uint256"
        }
      ],
      "stateMutability": "view",
      "type": "function"
    },
    {
      "inputs": [],
      "name": "decimals",
      "outputs": [
        {
          "internalType": "uint8",
          "name": "",
          "type": "uint8"
        }
      ],
      "stateMutability": "view",
      "type": "function"
    },
    {
      "inputs": [],
      "name": "name",
      "outputs": [
        {
          "internalType": "string",
          "name": "",
          "type": "string"
        }
      ],
      "stateMutability": "view",
      "type": "function"
    },
    {
      "inputs": [],
      "name": "symbol",
      "outputs": [
        {
          "internalType": "string",
          "name": "",
          "type": "string"
        }
      ],
      "stateMutability": "view",
      "type": "function"
    },
    {
      "inputs": [
        {
          "internalType": "address",
          "name": "to",
          "type": "address"
        },
        {
          "internalType": "externalEuint64",
          "name": "encryptedAmount",
          "type": "bytes32"
        },
        {
          "internalType": "bytes",
          "name": "inputProof",
          "type": "bytes"
        }
      ],
      "name": "transfer",
      "outputs": [
        {
          "internalType": "bool",
          "name": "",
          "type": "bool"
        }
      ],
      "stateMutability": "nonpayable",
      "type": "function"
    },
    {
      "inputs": [
        {
          "internalType": "address",
          "name": "from",
          "type": "address"
        },
        {
          "internalType": "address",
          "name": "to",
          "type": "address"
        },
        {
          "internalType": "externalEuint64",
          "name": "encryptedAmount",
          "type": "bytes32"
        },
        {
          "internalType": "bytes",
          "name": "inputProof",
          "type": "bytes"
        }
      ],
      "name": "transferFrom",
      "outputs": [
        {
          "internalType": "bool",
          "name": "",
          "type": "bool"
        }
      ],
      "stateMutability": "nonpayable",
      "type": "function"
    },
    {
      "inputs": [
        {
          "internalType": "address",
          "name": "from",
          "type": "address"
        },
        {
          "internalType": "address",
          "name": "to",
          "type": "address"
        },
        {
          "internalType": "euint64",
          "name": "amount",
          "type": "bytes32"
        }
      ],
      "name": "transferInternal",
      "outputs": [],
      "stateMutability": "nonpayable",
      "type": "function"
    },
    {
      "inputs": [],
      "name": "underlying",
      "outputs": [
        {
          "internalType": "contract MishaToken",
          "name": "",
          "type": "address"
        }
      ],
      "stateMutability": "view",
      "type": "function"
    },
    {
      "inputs": [
        {
          "internalType": "uint256",
          "name": "amount",
          "type": "uint256"
        }
      ],
      "name": "unwrap",
      "outputs": [],
      "stateMutability": "nonpayable",
      "type": "function"
    },
    {
      "inputs": [
        {
          "internalType": "uint256",
          "name": "amount",
          "type": "uint256"
        }
      ],
      "name": "wrap",
      "outputs": [],
      "stateMutability": "nonpayable",
      "type": "function"
    }
  ],
  "transactionHash": "0xc7e51c927ef152a42047bac225da63a11f057a4a2138417dc769c5792e3ace00",
  "args": [
    "0xCeF431F34BC12Ea10935E64Ad19F19a7bA3677E4"
  ],
  "numDeployments": 1,
  "solcInputHash": "045dcd64a2453ddeda4b6127bd8c79d9",
  "bytecode": "0x608060405234801561000f575f5ffd5b5060405161163e38038061163e83398101604081905261002e916102b5565b6100e2610039610106565b80517f9e7b61f58c47dc699ac88507c4f5bb9f121c03808c5676a8078fe583e464970080546001600160a01b03199081166001600160a01b039384161790915560208301517f9e7b61f58c47dc699ac88507c4f5bb9f121c03808c5676a8078fe583e46497018054831691841691909117905560408301517f9e7b61f58c47dc699ac88507c4f5bb9f121c03808c5676a8078fe583e46497028054909216921691909117905550565b5f80546001600160a01b0319166001600160a01b03929092169190911790556102e2565b604080516060810182525f80825260208201819052918101919091524660010361019f575060408051606080820183525f8083526020808401829052928401528251908101835273ca2e8f1f656cd25c01f05d0b243ab1ecd4a8ffb6815273d82385dada1ae3e969447f20a3164f6213100e75918101919091527377627828a55156b04ac0dc0eb30467f1a552bb039181019190915290565b4662aa36a70361021e575060408051606080820183525f8083526020808401829052928401528251908101835273f0ffdc93b7e186bc2f8cb3daa75d86d1930a433d81527392c920834ec8941d2c77d188936e1f7a6f49c1279181019190915273be0e383937d564d7ff0bc3b46c51f0bf8d5c311a9181019190915290565b46617a690361029c575060408051606080820183525f808352602080840182905292840152825190810183527350157cffd6bbfa2dece204a89ec419c23ef5755d815273e3a9105a3a932253a70f126eb1e3b589c643dd249181019190915273901f8942346f7ab3a01f6d7613119bca447bb0309181019190915290565b6040516373cac13b60e01b815260040160405180910390fd5b5f602082840312156102c5575f5ffd5b81516001600160a01b03811681146102db575f5ffd5b9392505050565b61134f806102ef5f395ff3fe608060405234801561000f575f5ffd5b50600436106100e5575f3560e01c80639a09435211610088578063dd62ed3e11610063578063dd62ed3e14610256578063de0e9a3e14610269578063ea598cb01461027c578063ef4cadc51461028f575f5ffd5b80639a0943521461021b578063aa296a921461022e578063b32c100114610243575f5ffd5b806370a08231116100c357806370a082311461017e5780637b7e0a5a146101b45780638927b030146101d757806395d89b41146101df575f5ffd5b806306fdde03146100e9578063313ce5671461013b5780636f307dc314610154575b5f5ffd5b6101256040518060400160405280601281526020017f436f6e666964656e7469616c204d69736861000000000000000000000000000081525081565b60405161013291906110b2565b60405180910390f35b6101425f81565b60405160ff9091168152602001610132565b5f54610166906001600160a01b031681565b6040516001600160a01b039091168152602001610132565b6101a661018c3660046110df565b6001600160a01b03165f9081526001602052604090205490565b604051908152602001610132565b6101c76101c236600461113d565b61029e565b6040519015158152602001610132565b6101a661031f565b6101256040518060400160405280600681526020017f634d49534841000000000000000000000000000000000000000000000000000081525081565b6101c7610229366004611193565b61032d565b61024161023c3660046111fd565b61046b565b005b6101c761025136600461113d565b61047b565b6101a6610264366004611237565b6105b0565b610241610277366004611268565b6105dc565b61024161028a366004611268565b610763565b6101a6670de0b6b3a764000081565b5f6001600160a01b0385166102c65760405163d92e233d60e01b815260040160405180910390fd5b5f6103068585858080601f0160208091040260200160405190810160405280939291908181526020018383808284375f9201919091525061092c92505050565b905061031333878361097d565b50600195945050505050565b5f610328610ae7565b905090565b5f6001600160a01b0385166103555760405163d92e233d60e01b815260040160405180910390fd5b5f6103958585858080601f0160208091040260200160405190810160405280939291908181526020018383808284375f9201919091525061092c92505050565b6001600160a01b0388165f9081526002602090815260408083203384529091529020549091506103c58183610b1b565b6001600160a01b0389165f90815260026020908152604080832033845290915290208190556103f390610b50565b506001600160a01b0388165f9081526002602090815260408083203384529091529020546104219089610b70565b506001600160a01b0388165f9081526002602090815260408083203380855292529091205461044f91610b70565b5061045b88888461097d565b6001925050505b95945050505050565b61047683838361097d565b505050565b5f6001600160a01b0385166104a35760405163d92e233d60e01b815260040160405180910390fd5b5f6104e38585858080601f0160208091040260200160405190810160405280939291908181526020018383808284375f9201919091525061092c92505050565b335f9081526002602090815260408083206001600160a01b038b1684529091529020819055905061051381610b50565b50335f8181526002602090815260408083206001600160a01b038b16845290915290205461054091610b70565b50335f9081526002602090815260408083206001600160a01b038a16845290915290205461056e9087610b70565b506040516001600160a01b0387169033907ff37f546c25e850257cc0c94f92bec94a17e2f0e884ddda268a25d8144b70eb6a905f90a350600195945050505050565b6001600160a01b038083165f908152600260209081526040808320938516835292905220545b92915050565b805f036105fc57604051631f2a200560e01b815260040160405180910390fd5b5f61060682610b93565b335f908152600160205260409020549091506106229082610b1b565b335f90815260016020526040902081905561063c90610b50565b50335f8181526001602052604090205461065591610b70565b505f546001600160a01b031663a9059cbb33610679670de0b6b3a76400008661127f565b6040517fffffffff0000000000000000000000000000000000000000000000000000000060e085901b1681526001600160a01b03909216600483015260248201526044016020604051808303815f875af11580156106d9573d5f5f3e3d5ffd5b505050506040513d601f19601f820116820180604052508101906106fd91906112a2565b5060405182815233907f5dd085b6070b4cae004f84daafd199fd55b0bdfa11c3a802baffe89c2419d8c29060200160405180910390a26040515f9033907f4853ae1b4d437c4255ac16cd3ceda3465975023f27cb141584cd9d44440fed82908390a35050565b805f0361078357604051631f2a200560e01b815260040160405180910390fd5b5f546001600160a01b03166323b872dd33306107a7670de0b6b3a76400008661127f565b6040517fffffffff0000000000000000000000000000000000000000000000000000000060e086901b1681526001600160a01b03938416600482015292909116602483015260448201526064016020604051808303815f875af1158015610810573d5f5f3e3d5ffd5b505050506040513d601f19601f8201168201806040525081019061083491906112a2565b505f61083f82610b93565b335f908152600160205260409020549091501561088357335f9081526001602052604090205461086f9082610ba9565b335f90815260016020526040902055610895565b335f9081526001602052604090208190555b335f908152600160205260409020546108ad90610b50565b50335f818152600160205260409020546108c691610b70565b5060405182815233907fb61d00fdfee32467c7d81db64c811ae60c104c346debf36a14afe84b8fce59e59060200160405180910390a260405133905f907f4853ae1b4d437c4255ac16cd3ceda3465975023f27cb141584cd9d44440fed82908290a35050565b5f81515f146109485761094183836005610bd7565b90506105d6565b826109538133610cf7565b61094157604051630276b5d960e01b81526004810182905233602482015260440160405180910390fd5b6001600160a01b0383165f9081526001602052604090205461099f9082610b1b565b6001600160a01b0384165f9081526001602052604090208190556109c290610b50565b506001600160a01b0383165f908152600160205260409020546109e59084610b70565b506001600160a01b0382165f9081526001602052604090205415610a42576001600160a01b0382165f90815260016020526040902054610a259082610ba9565b6001600160a01b0383165f90815260016020526040902055610a5d565b6001600160a01b0382165f9081526001602052604090208190555b6001600160a01b0382165f90815260016020526040902054610a7e90610b50565b506001600160a01b0382165f90815260016020526040902054610aa19083610b70565b50816001600160a01b0316836001600160a01b03167f4853ae1b4d437c4255ac16cd3ceda3465975023f27cb141584cd9d44440fed8260405160405180910390a3505050565b5f46600103610af65750600190565b4662aa36a703610b07575061271190565b46617a6903610b1657505f1990565b505f90565b5f82610b2d57610b2a5f610b93565b92505b81610b3e57610b3b5f610b93565b91505b610b4983835f610d96565b9392505050565b5f81610b6257610b5f5f610b93565b91505b610b6c8230610e91565b5090565b5f82610b8257610b7f5f610b93565b92505b610b8c8383610e91565b5090919050565b5f6105d68267ffffffffffffffff166005610f1a565b5f82610bbb57610bb85f610b93565b92505b81610bcc57610bc95f610b93565b91505b610b4983835f610fcf565b7f9e7b61f58c47dc699ac88507c4f5bb9f121c03808c5676a8078fe583e46497015460405163045fc19560e11b81525f917f9e7b61f58c47dc699ac88507c4f5bb9f121c03808c5676a8078fe583e4649700916001600160a01b03909116906308bf832a90610c509088903390899089906004016112e1565b6020604051808303815f875af1158015610c6c573d5f5f3e3d5ffd5b505050506040513d601f19601f82011682018060405250810190610c909190611317565b8154604051630f8e573b60e21b8152600481018390523360248201529193506001600160a01b031690633e395cec906044015f604051808303815f87803b158015610cd9575f5ffd5b505af1158015610ceb573d5f5f3e3d5ffd5b50505050509392505050565b5f807f9e7b61f58c47dc699ac88507c4f5bb9f121c03808c5676a8078fe583e464970080546040516382027b6d60e01b8152600481018790526001600160a01b0386811660248301529293509116906382027b6d90604401602060405180830381865afa158015610d6a573d5f5f3e3d5ffd5b505050506040513d601f19601f82011682018060405250810190610d8e91906112a2565b949350505050565b5f5f8215610da95750600160f81b610dac565b505f5b7f9e7b61f58c47dc699ac88507c4f5bb9f121c03808c5676a8078fe583e4649701546040516303056db360e31b815260048101879052602481018690527fff00000000000000000000000000000000000000000000000000000000000000831660448201527f9e7b61f58c47dc699ac88507c4f5bb9f121c03808c5676a8078fe583e4649700916001600160a01b03169063182b6d98906064015b6020604051808303815f875af1158015610e63573d5f5f3e3d5ffd5b505050506040513d601f19601f82011682018060405250810190610e879190611317565b9695505050505050565b5f7f9e7b61f58c47dc699ac88507c4f5bb9f121c03808c5676a8078fe583e46497008054604051635ca4b5b160e11b8152600481018690526001600160a01b03858116602483015292935091169063b9496b62906044015f604051808303815f87803b158015610eff575f5ffd5b505af1158015610f11573d5f5f3e3d5ffd5b50505050505050565b7f9e7b61f58c47dc699ac88507c4f5bb9f121c03808c5676a8078fe583e464970154604051639cd07acb60e01b81525f917f9e7b61f58c47dc699ac88507c4f5bb9f121c03808c5676a8078fe583e4649700916001600160a01b0390911690639cd07acb90610f8f908790879060040161132e565b6020604051808303815f875af1158015610fab573d5f5f3e3d5ffd5b505050506040513d601f19601f82011682018060405250810190610d8e9190611317565b5f5f8215610fe25750600160f81b610fe5565b505f5b7f9e7b61f58c47dc699ac88507c4f5bb9f121c03808c5676a8078fe583e46497015460405163022f65e760e31b815260048101879052602481018690527fff00000000000000000000000000000000000000000000000000000000000000831660448201527f9e7b61f58c47dc699ac88507c4f5bb9f121c03808c5676a8078fe583e4649700916001600160a01b03169063117b2f3890606401610e47565b5f81518084528060208401602086015e5f602082860101526020601f19601f83011685010191505092915050565b602081525f610b496020830184611084565b80356001600160a01b03811681146110da575f5ffd5b919050565b5f602082840312156110ef575f5ffd5b610b49826110c4565b5f5f83601f840112611108575f5ffd5b50813567ffffffffffffffff81111561111f575f5ffd5b602083019150836020828501011115611136575f5ffd5b9250929050565b5f5f5f5f60608587031215611150575f5ffd5b611159856110c4565b935060208501359250604085013567ffffffffffffffff81111561117b575f5ffd5b611187878288016110f8565b95989497509550505050565b5f5f5f5f5f608086880312156111a7575f5ffd5b6111b0866110c4565b94506111be602087016110c4565b935060408601359250606086013567ffffffffffffffff8111156111e0575f5ffd5b6111ec888289016110f8565b969995985093965092949392505050565b5f5f5f6060848603121561120f575f5ffd5b611218846110c4565b9250611226602085016110c4565b929592945050506040919091013590565b5f5f60408385031215611248575f5ffd5b611251836110c4565b915061125f602084016110c4565b90509250929050565b5f60208284031215611278575f5ffd5b5035919050565b80820281158282048414176105d657634e487b7160e01b5f52601160045260245ffd5b5f602082840312156112b2575f5ffd5b81518015158114610b49575f5ffd5b605481106112dd57634e487b7160e01b5f52602160045260245ffd5b9052565b8481526001600160a01b0384166020820152608060408201525f6113086080830185611084565b905061046260608301846112c1565b5f60208284031215611327575f5ffd5b5051919050565b82815260408101610b4960208301846112c156fea164736f6c634300081b000a",
  "devdoc": {
    "kind": "dev",
    "methods": {
      "transferInternal(address,address,bytes32)": {
        "details": "Called by MishaMarket contract to move tokens with already-validated handles"
      },
      "unwrap(uint256)": {
        "params": {
          "amount": "Number of whole cMISHA tokens to unwrap (1 = 1 MISHA = 1e18 wei)"
        }
      },
      "wrap(uint256)": {
        "details": "Caller must have approved this contract on MishaToken first",
        "params": {
          "amount": "Number of whole MISHA tokens to wrap (1 = 1 MISHA = 1e18 wei)"
        }
      }
    },
    "title": "ConfidentialMisha  Confidential ERC-20 wrapper for $MISHA",
    "version": 1
  },
  "userdoc": {
    "errors": {
      "SenderNotAllowedToUseHandle(bytes32,address)": [
        {
          "notice": "Returned if the sender is not allowed to use the handle."
        }
      ],
      "ZamaProtocolUnsupported()": [
        {
          "notice": "Returned if the Zama protocol is not supported on the current chain"
        }
      ]
    },
    "kind": "user",
    "methods": {
      "SCALING_FACTOR()": {
        "notice": "1 cMISHA = 1e18 wei MISHA (1 whole token)"
      },
      "allowance(address,address)": {
        "notice": "Get encrypted allowance handle"
      },
      "approve(address,bytes32,bytes)": {
        "notice": "Approve spender for encrypted allowance"
      },
      "balanceOf(address)": {
        "notice": "Get encrypted balance handle (only owner can decrypt)"
      },
      "transfer(address,bytes32,bytes)": {
        "notice": "Transfer encrypted amount to recipient"
      },
      "transferFrom(address,address,bytes32,bytes)": {
        "notice": "Transfer from using allowance (encrypted amounts)"
      },
      "transferInternal(address,address,bytes32)": {
        "notice": "Internal transfer using pre-validated euint64 handle"
      },
      "unwrap(uint256)": {
        "notice": "Burn encrypted $cMISHA and release standard $MISHA"
      },
      "wrap(uint256)": {
        "notice": "Lock standard $MISHA and mint encrypted $cMISHA"
      }
    },
    "notice": "Wrap standard $MISHA into encrypted $cMISHA for private betting.         Unwrap back to standard $MISHA when exiting the private world.",
    "version": 1
  },
  "storageLayout": {
    "storage": [
      {
        "astId": 41137,
        "contract": "contracts/ConfidentialMisha.sol:ConfidentialMisha",
        "label": "underlying",
        "offset": 0,
        "slot": "0",
        "type": "t_contract(MishaToken)42969"
      },
      {
        "astId": 41146,
        "contract": "contracts/ConfidentialMisha.sol:ConfidentialMisha",
        "label": "_balances",
        "offset": 0,
        "slot": "1",
        "type": "t_mapping(t_address,t_userDefinedValueType(euint64)42989)"
      },
      {
        "astId": 41153,
        "contract": "contracts/ConfidentialMisha.sol:ConfidentialMisha",
        "label": "_allowances",
        "offset": 0,
        "slot": "2",
        "type": "t_mapping(t_address,t_mapping(t_address,t_userDefinedValueType(euint64)42989))"
      }
    ],
    "types": {
      "t_address": {
        "encoding": "inplace",
        "label": "address",
        "numberOfBytes": "20"
      },
      "t_contract(MishaToken)42969": {
        "encoding": "inplace",
        "label": "contract MishaToken",
        "numberOfBytes": "20"
      },
      "t_mapping(t_address,t_mapping(t_address,t_userDefinedValueType(euint64)42989))": {
        "encoding": "mapping",
        "key": "t_address",
        "label": "mapping(address => mapping(address => euint64))",
        "numberOfBytes": "32",
        "value": "t_mapping(t_address,t_userDefinedValueType(euint64)42989)"
      },
      "t_mapping(t_address,t_userDefinedValueType(euint64)42989)": {
        "encoding": "mapping",
        "key": "t_address",
        "label": "mapping(address => euint64)",
        "numberOfBytes": "32",
        "value": "t_userDefinedValueType(euint64)42989"
      },
      "t_userDefinedValueType(euint64)42989": {
        "encoding": "inplace",
        "label": "euint64",
        "numberOfBytes": "32"
      }
    }
  }
}