{
  "address": "0x39eF3A24f89a52220BaaFa3911599DbB7f712247",
  "abi": [
    {
      "inputs": [
        {
          "internalType": "address",
          "name": "_confidentialToken",
          "type": "address"
        }
      ],
      "stateMutability": "nonpayable",
      "type": "constructor"
    },
    {
      "inputs": [],
      "name": "AlreadyBet",
      "type": "error"
    },
    {
      "inputs": [],
      "name": "AlreadyClaimed",
      "type": "error"
    },
    {
      "inputs": [],
      "name": "InvalidKMSSignatures",
      "type": "error"
    },
    {
      "inputs": [],
      "name": "InvalidResult",
      "type": "error"
    },
    {
      "inputs": [],
      "name": "InvalidTimestamps",
      "type": "error"
    },
    {
      "inputs": [],
      "name": "MarketNotActive",
      "type": "error"
    },
    {
      "inputs": [],
      "name": "MarketNotResolved",
      "type": "error"
    },
    {
      "inputs": [],
      "name": "NoBet",
      "type": "error"
    },
    {
      "inputs": [],
      "name": "OnlyAdmin",
      "type": "error"
    },
    {
      "inputs": [
        {
          "internalType": "bytes32",
          "name": "handle",
          "type": "bytes32"
        },
        {
          "internalType": "address",
          "name": "sender",
          "type": "address"
        }
      ],
      "name": "SenderNotAllowedToUseHandle",
      "type": "error"
    },
    {
      "inputs": [],
      "name": "TotalsAlreadyDecrypted",
      "type": "error"
    },
    {
      "inputs": [],
      "name": "TotalsNotDecrypted",
      "type": "error"
    },
    {
      "inputs": [],
      "name": "VotingEnded",
      "type": "error"
    },
    {
      "inputs": [],
      "name": "VotingNotEnded",
      "type": "error"
    },
    {
      "inputs": [],
      "name": "ZamaProtocolUnsupported",
      "type": "error"
    },
    {
      "anonymous": false,
      "inputs": [
        {
          "indexed": true,
          "internalType": "uint256",
          "name": "marketId",
          "type": "uint256"
        },
        {
          "indexed": true,
          "internalType": "address",
          "name": "user",
          "type": "address"
        }
      ],
      "name": "BetPlaced",
      "type": "event"
    },
    {
      "anonymous": false,
      "inputs": [
        {
          "indexed": true,
          "internalType": "uint256",
          "name": "marketId",
          "type": "uint256"
        },
        {
          "indexed": false,
          "internalType": "string",
          "name": "title",
          "type": "string"
        },
        {
          "indexed": false,
          "internalType": "string",
          "name": "metadataUri",
          "type": "string"
        },
        {
          "indexed": false,
          "internalType": "uint64",
          "name": "votingEndsAt",
          "type": "uint64"
        },
        {
          "indexed": false,
          "internalType": "uint64",
          "name": "resolutionDeadline",
          "type": "uint64"
        }
      ],
      "name": "MarketCreated",
      "type": "event"
    },
    {
      "anonymous": false,
      "inputs": [
        {
          "indexed": true,
          "internalType": "uint256",
          "name": "marketId",
          "type": "uint256"
        },
        {
          "indexed": false,
          "internalType": "enum MishaMarket.MarketResult",
          "name": "result",
          "type": "uint8"
        }
      ],
      "name": "MarketResolved",
      "type": "event"
    },
    {
      "anonymous": false,
      "inputs": [
        {
          "indexed": true,
          "internalType": "uint256",
          "name": "marketId",
          "type": "uint256"
        },
        {
          "indexed": true,
          "internalType": "address",
          "name": "user",
          "type": "address"
        }
      ],
      "name": "PayoutClaimed",
      "type": "event"
    },
    {
      "anonymous": false,
      "inputs": [
        {
          "indexed": false,
          "internalType": "bytes32[]",
          "name": "handlesList",
          "type": "bytes32[]"
        },
        {
          "indexed": false,
          "internalType": "bytes",
          "name": "abiEncodedCleartexts",
          "type": "bytes"
        }
      ],
      "name": "PublicDecryptionVerified",
      "type": "event"
    },
    {
      "anonymous": false,
      "inputs": [
        {
          "indexed": true,
          "internalType": "uint256",
          "name": "marketId",
          "type": "uint256"
        },
        {
          "indexed": false,
          "internalType": "uint64",
          "name": "yesTotal",
          "type": "uint64"
        },
        {
          "indexed": false,
          "internalType": "uint64",
          "name": "noTotal",
          "type": "uint64"
        }
      ],
      "name": "TotalsDecrypted",
      "type": "event"
    },
    {
      "inputs": [],
      "name": "admin",
      "outputs": [
        {
          "internalType": "address",
          "name": "",
          "type": "address"
        }
      ],
      "stateMutability": "view",
      "type": "function"
    },
    {
      "inputs": [
        {
          "internalType": "uint256",
          "name": "marketId",
          "type": "uint256"
        }
      ],
      "name": "claimPayout",
      "outputs": [],
      "stateMutability": "nonpayable",
      "type": "function"
    },
    {
      "inputs": [],
      "name": "confidentialProtocolId",
      "outputs": [
        {
          "internalType": "uint256",
          "name": "",
          "type": "uint256"
        }
      ],
      "stateMutability": "view",
      "type": "function"
    },
    {
      "inputs": [
        {
          "internalType": "string",
          "name": "title",
          "type": "string"
        },
        {
          "internalType": "string",
          "name": "metadataUri",
          "type": "string"
        },
        {
          "internalType": "uint64",
          "name": "votingEndsAt",
          "type": "uint64"
        },
        {
          "internalType": "uint64",
          "name": "resolutionDeadline",
          "type": "uint64"
        }
      ],
      "name": "createMarket",
      "outputs": [
        {
          "internalType": "uint256",
          "name": "marketId",
          "type": "uint256"
        }
      ],
      "stateMutability": "nonpayable",
      "type": "function"
    },
    {
      "inputs": [
        {
          "internalType": "uint256",
          "name": "marketId",
          "type": "uint256"
        }
      ],
      "name": "getMarket",
      "outputs": [
        {
          "internalType": "string",
          "name": "title",
          "type": "string"
        },
        {
          "internalType": "string",
          "name": "metadataUri",
          "type": "string"
        },
        {
          "internalType": "uint64",
          "name": "votingEndsAt",
          "type": "uint64"
        },
        {
          "internalType": "uint64",
          "name": "resolutionDeadline",
          "type": "uint64"
        },
        {
          "internalType": "enum MishaMarket.MarketStatus",
          "name": "status",
          "type": "uint8"
        },
        {
          "internalType": "enum MishaMarket.MarketResult",
          "name": "result",
          "type": "uint8"
        },
        {
          "internalType": "uint32",
          "name": "betCount",
          "type": "uint32"
        },
        {
          "internalType": "uint64",
          "name": "decryptedYesTotal",
          "type": "uint64"
        },
        {
          "internalType": "uint64",
          "name": "decryptedNoTotal",
          "type": "uint64"
        },
        {
          "internalType": "bool",
          "name": "totalsDecrypted",
          "type": "bool"
        }
      ],
      "stateMutability": "view",
      "type": "function"
    },
    {
      "inputs": [
        {
          "internalType": "uint256",
          "name": "marketId",
          "type": "uint256"
        }
      ],
      "name": "getMarketHandles",
      "outputs": [
        {
          "internalType": "bytes32",
          "name": "yesHandle",
          "type": "bytes32"
        },
        {
          "internalType": "bytes32",
          "name": "noHandle",
          "type": "bytes32"
        }
      ],
      "stateMutability": "view",
      "type": "function"
    },
    {
      "inputs": [
        {
          "internalType": "uint256",
          "name": "marketId",
          "type": "uint256"
        },
        {
          "internalType": "address",
          "name": "user",
          "type": "address"
        }
      ],
      "name": "getUserBet",
      "outputs": [
        {
          "internalType": "ebool",
          "name": "vote",
          "type": "bytes32"
        },
        {
          "internalType": "euint64",
          "name": "amount",
          "type": "bytes32"
        },
        {
          "internalType": "bool",
          "name": "exists",
          "type": "bool"
        },
        {
          "internalType": "bool",
          "name": "claimed",
          "type": "bool"
        }
      ],
      "stateMutability": "view",
      "type": "function"
    },
    {
      "inputs": [],
      "name": "marketCount",
      "outputs": [
        {
          "internalType": "uint256",
          "name": "",
          "type": "uint256"
        }
      ],
      "stateMutability": "view",
      "type": "function"
    },
    {
      "inputs": [
        {
          "internalType": "uint256",
          "name": "marketId",
          "type": "uint256"
        },
        {
          "internalType": "externalEbool",
          "name": "encryptedVote",
          "type": "bytes32"
        },
        {
          "internalType": "externalEuint64",
          "name": "encryptedAmount",
          "type": "bytes32"
        },
        {
          "internalType": "bytes",
          "name": "inputProof",
          "type": "bytes"
        }
      ],
      "name": "placeBet",
      "outputs": [],
      "stateMutability": "nonpayable",
      "type": "function"
    },
    {
      "inputs": [
        {
          "internalType": "uint256",
          "name": "marketId",
          "type": "uint256"
        },
        {
          "internalType": "enum MishaMarket.MarketResult",
          "name": "result",
          "type": "uint8"
        }
      ],
      "name": "resolveMarket",
      "outputs": [],
      "stateMutability": "nonpayable",
      "type": "function"
    },
    {
      "inputs": [
        {
          "internalType": "uint256",
          "name": "marketId",
          "type": "uint256"
        },
        {
          "internalType": "bytes",
          "name": "abiEncodedCleartexts",
          "type": "bytes"
        },
        {
          "internalType": "bytes",
          "name": "decryptionProof",
          "type": "bytes"
        }
      ],
      "name": "submitVerifiedTotals",
      "outputs": [],
      "stateMutability": "nonpayable",
      "type": "function"
    },
    {
      "inputs": [],
      "name": "token",
      "outputs": [
        {
          "internalType": "contract IERC7984",
          "name": "",
          "type": "address"
        }
      ],
      "stateMutability": "view",
      "type": "function"
    }
  ],
  "transactionHash": "0x368e0631c92dca8729f7baf3011ab33f0c44f358a368199bf69ad958cf923ff7",
  "args": [
    "0xDeb73caC5494D5F835A751FB6341C992492696b7"
  ],
  "numDeployments": 1,
  "solcInputHash": "6b18bcf9bb8f80ac6f8bc2325902a7a4",
  "bytecode": "0x608060405234801561000f575f5ffd5b5060405161246438038061246483398101604081905261002e916102c3565b6100e2610039610114565b80517f9e7b61f58c47dc699ac88507c4f5bb9f121c03808c5676a8078fe583e464970080546001600160a01b03199081166001600160a01b039384161790915560208301517f9e7b61f58c47dc699ac88507c4f5bb9f121c03808c5676a8078fe583e46497018054831691841691909117905560408301517f9e7b61f58c47dc699ac88507c4f5bb9f121c03808c5676a8078fe583e46497028054909216921691909117905550565b60018054336001600160a01b0319918216179091555f80549091166001600160a01b03929092169190911790556102f0565b604080516060810182525f8082526020820181905291810191909152466001036101ad575060408051606080820183525f8083526020808401829052928401528251908101835273ca2e8f1f656cd25c01f05d0b243ab1ecd4a8ffb6815273d82385dada1ae3e969447f20a3164f6213100e75918101919091527377627828a55156b04ac0dc0eb30467f1a552bb039181019190915290565b4662aa36a70361022c575060408051606080820183525f8083526020808401829052928401528251908101835273f0ffdc93b7e186bc2f8cb3daa75d86d1930a433d81527392c920834ec8941d2c77d188936e1f7a6f49c1279181019190915273be0e383937d564d7ff0bc3b46c51f0bf8d5c311a9181019190915290565b46617a69036102aa575060408051606080820183525f808352602080840182905292840152825190810183527350157cffd6bbfa2dece204a89ec419c23ef5755d815273e3a9105a3a932253a70f126eb1e3b589c643dd249181019190915273901f8942346f7ab3a01f6d7613119bca447bb0309181019190915290565b6040516373cac13b60e01b815260040160405180910390fd5b5f602082840312156102d3575f5ffd5b81516001600160a01b03811681146102e9575f5ffd5b9392505050565b612167806102fd5f395ff3fe608060405234801561000f575f5ffd5b50600436106100ce575f3560e01c8063d35f34321161007d578063ec97908211610058578063ec9790821461022f578063f851a44014610238578063fc0c546a14610263575f5ffd5b8063d35f3432146101e0578063df55406e146101f3578063eb44fdd314610206575f5ffd5b80638927b030116100ad5780638927b0301461014e5780638a69614e14610156578063c03fb87c14610169575f5ffd5b8062d016e4146100d2578063173b40a7146101185780633515d3b71461012d575b5f5ffd5b6100fe6100e03660046119b3565b5f908152600360208190526040909120908101546004909101549091565b604080519283526020830191909152015b60405180910390f35b61012b610126366004611a69565b610275565b005b61014061013b366004611b33565b610409565b60405190815260200161010f565b6101406105af565b61012b6101643660046119b3565b6105bd565b6101b8610177366004611bc7565b5f9182526004602090815260408084206001600160a01b03939093168452919052902080546001820154600290920154909260ff8083169261010090041690565b604080519485526020850193909352901515918301919091521515606082015260800161010f565b61012b6101ee366004611c00565b610967565b61012b610201366004611c5c565b610d04565b6102196102143660046119b3565b610e95565b60405161010f9a99989796959493929190611cd8565b61014060025481565b60015461024b906001600160a01b031681565b6040516001600160a01b03909116815260200161010f565b5f5461024b906001600160a01b031681565b5f8381526003602052604090206001600282810154600160801b900460ff16908111156102a4576102a4611cb0565b146102c25760405163174b639360e11b815260040160405180910390fd5b6005810154600160801b900460ff16156102ef576040516378ca439360e01b815260040160405180910390fd5b6040805160028082526060820183525f926020830190803683375050506003830154909150815f8151811061032657610326611d89565b602090810291909101015260048201548160018151811061034957610349611d89565b60200260200101818152505061036081858561104a565b5f5f858060200190518101906103769190611d9d565b600586018054600160801b67ffffffffffffffff8581166fffffffffffffffffffffffffffffffff199093168317600160401b9186169182021760ff60801b19169190911790925560408051918252602082019290925292945090925088917f6be45addf48c5ff36b13cbf3fbc0170b0c7b6cad49f8ea4bb613c0f82ca09f82910160405180910390a250505050505050565b6001545f906001600160a01b0316331461043657604051634755657960e01b815260040160405180910390fd5b4267ffffffffffffffff168367ffffffffffffffff161161046a5760405163d22806e360e01b815260040160405180910390fd5b8267ffffffffffffffff168267ffffffffffffffff16101561049f5760405163d22806e360e01b815260040160405180910390fd5b50600280549081905f6104b183611dde565b90915550505f818152600360205260409020806104cf888a83611e7a565b50600181016104df868883611e7a565b5060028101805467ffffffffffffffff858116600160401b026fffffffffffffffffffffffffffffffff19909216908716171771ffff00000000000000000000000000000000191690556105325f6110b5565b60038201556105405f6110b5565b60048201556003810154610553906110d1565b5061056181600401546110d1565b50817fc6e88bcccab7a0a3b4e7586797ffc87872204c7b947848aa410b2cea8192917889898989898960405161059c96959493929190611f5c565b60405180910390a2509695505050505050565b5f6105b86110f1565b905090565b5f8181526004602090815260408083203384529091529020600281015460ff166105fa5760405163361fa78160e21b815260040160405180910390fd5b6002810154610100900460ff161561062557604051630c8d9eab60e31b815260040160405180910390fd5b5f82815260036020819052604090912060028301805461ff001916610100179055906002820154600160881b900460ff16600381111561066757610667611cb0565b0361073e5761067982600101546110d1565b5060018201545f5461069491906001600160a01b0316611125565b505f546001830154604051632df5f6bf60e11b815233600482015260248101919091526001600160a01b0390911690635bebed7e906044016020604051808303815f875af11580156106e8573d5f5f3e3d5ffd5b505050506040513d601f19601f8201168201806040525081019061070c9190611fb0565b50604051339084907f3d22404c1cc25bf89323ad45c5293c2188927fa7850f0f796fefd2deda0f7ba2905f90a3505050565b6001600282810154600160801b900460ff169081111561076057610760611cb0565b1461077e5760405163174b639360e11b815260040160405180910390fd5b6005810154600160801b900460ff166107aa576040516324d1406d60e21b815260040160405180910390fd5b60058101545f906107ce9067ffffffffffffffff600160401b820481169116611fc7565b90505f60016002840154600160881b900460ff1660038111156107f3576107f3611cb0565b14610813576005830154600160401b900467ffffffffffffffff16610823565b600583015467ffffffffffffffff165b90505f61085160016002860154600160881b900460ff16600381111561084b5761084b611cb0565b14611148565b90505f610861865f015483611163565b90505f610872876001015486611198565b90505f61087f82866111c0565b90505f61088b5f6110b5565b90505f6108998584846111e6565b90506108a4816110d1565b505f546108bb9082906001600160a01b0316611125565b505f54604051632df5f6bf60e11b8152336004820152602481018390526001600160a01b0390911690635bebed7e906044016020604051808303815f875af1158015610909573d5f5f3e3d5ffd5b505050506040513d601f19601f8201168201806040525081019061092d9190611fb0565b5060405133908c907f3d22404c1cc25bf89323ad45c5293c2188927fa7850f0f796fefd2deda0f7ba2905f90a35050505050505050505050565b5f85815260036020526040812090600282810154600160801b900460ff169081111561099557610995611cb0565b146109b357604051635a90bb8d60e11b815260040160405180910390fd5b600281015467ffffffffffffffff90811642909116106109e657604051637a19ed0560e01b815260040160405180910390fd5b5f86815260046020908152604080832033845290915290206002015460ff1615610a23576040516354103a1760e11b815260040160405180910390fd5b5f610a638685858080601f0160208091040260200160405190810160405280939291908181526020018383808284375f9201919091525061122d92505050565b90505f610aa58686868080601f0160208091040260200160405190810160405280939291908181526020018383808284375f9201919091525061127d92505050565b9050610ab0816110d1565b505f54610ac79082906001600160a01b0316611125565b505f5460405163eb3155b560e01b8152336004820152306024820152604481018390526001600160a01b039091169063eb3155b5906064016020604051808303815f875af1158015610b1b573d5f5f3e3d5ffd5b505050506040513d601f19601f82011682018060405250810190610b3f9190611fb0565b505f610b4a5f6110b5565b90505f610b588484846111e6565b90505f610b668584866111e6565b9050610b76866003015483611292565b60038701556004860154610b8a9082611292565b60048701556003860154610b9d906110d1565b50610bab86600401546110d1565b5060405180608001604052808681526020018581526020016001151581526020015f151581525060045f8d81526020019081526020015f205f336001600160a01b03166001600160a01b031681526020019081526020015f205f820151815f0155602082015181600101556040820151816002015f6101000a81548160ff02191690831515021790555060608201518160020160016101000a81548160ff021916908315150217905550905050610c61856112c0565b50610c6c85336112cf565b50610c76846110d1565b50610c818433611125565b50600586018054600160881b900463ffffffff16906011610ca183611fe7565b91906101000a81548163ffffffff021916908363ffffffff16021790555050336001600160a01b03168b7f71db8f0b94a6ae898ff1583920da121c8f18ea26ad96353276843685325262e160405160405180910390a35050505050505050505050565b6001546001600160a01b03163314610d2f57604051634755657960e01b815260040160405180910390fd5b5f82815260036020526040812090600282810154600160801b900460ff1690811115610d5d57610d5d611cb0565b14610d7b57604051635a90bb8d60e11b815260040160405180910390fd5b5f826003811115610d8e57610d8e611cb0565b03610dab5760405162f8b33f60e71b815260040160405180910390fd5b60028101805483919071ff00000000000000000000000000000000001916600160881b836003811115610de057610de0611cb0565b02179055506003826003811115610df957610df9611cb0565b03610e255760028101805460ff60801b1916700200000000000000000000000000000000179055610e58565b60028101805460ff60801b1916600160801b1790556003810154610e48906112de565b50610e5681600401546112de565b505b827f739f283563fb51ab6b89ee95d937b2e63a6cfcb83c385dbebb629f9d97bd43e683604051610e88919061200b565b60405180910390a2505050565b5f818152600360205260408120600281015460058201548254606094859490938493849384938493849384938493928392600184019267ffffffffffffffff80841693600160401b808204831694600160801b80840460ff90811696600160881b9586900482169695840463ffffffff169580851695850416939290920416908a90610f2090611df6565b80601f0160208091040260200160405190810160405280929190818152602001828054610f4c90611df6565b8015610f975780601f10610f6e57610100808354040283529160200191610f97565b820191905f5260205f20905b815481529060010190602001808311610f7a57829003601f168201915b50505050509950888054610faa90611df6565b80601f0160208091040260200160405190810160405280929190818152602001828054610fd690611df6565b80156110215780601f10610ff857610100808354040283529160200191611021565b820191905f5260205f20905b81548152906001019060200180831161100457829003601f168201915b505050505098509a509a509a509a509a509a509a509a509a509a50509193959799509193959799565b5f6110568484846112f9565b9050806110765760405163cf6c44e960e01b815260040160405180910390fd5b7fc6366bab028b8d033cb362cfd1f2f3457ef4e92fc738b6788b90d5a7846367a084846040516110a7929190612053565b60405180910390a150505050565b5f6110cb8267ffffffffffffffff1660056113a6565b92915050565b5f816110e3576110e05f6110b5565b91505b6110ed8230611448565b5090565b5f466001036111005750600190565b4662aa36a703611111575061271190565b46617a690361112057505f1990565b505f90565b5f82611137576111345f6110b5565b92505b6111418383611448565b5090919050565b5f6110cb82611157575f61115a565b60015b60ff165f6113a6565b5f82611175576111725f611148565b92505b81611186576111835f611148565b91505b61119183835f6114bc565b9392505050565b5f826111aa576111a75f6110b5565b92505b6111918367ffffffffffffffff8416600161158c565b5f826111d2576111cf5f6110b5565b92505b6111918367ffffffffffffffff8416611616565b5f836111f8576111f55f611148565b93505b82611209576112065f6110b5565b92505b8161121a576112175f6110b5565b91505b6112258484846116b1565b949350505050565b5f81515f146112485761124183835f61171a565b90506110cb565b826112538133611827565b61124157604051630276b5d960e01b81526004810182905233602482015260440160405180910390fd5b5f81515f14611248576112418383600561171a565b5f826112a4576112a15f6110b5565b92505b816112b5576112b25f6110b5565b91505b61119183835f6118ab565b5f816110e3576110e05f611148565b5f82611137576111345f611148565b5f816112f0576112ed5f6110b5565b91505b6110ed82611935565b7f9e7b61f58c47dc699ac88507c4f5bb9f121c03808c5676a8078fe583e4649702546040516378542ead60e01b81525f915f51602061213b5f395f51905f52916001600160a01b03909116906378542ead9061135d90889088908890600401612077565b6020604051808303815f875af1158015611379573d5f5f3e3d5ffd5b505050506040513d601f19601f8201168201806040525081019061139d91906120af565b95945050505050565b7f9e7b61f58c47dc699ac88507c4f5bb9f121c03808c5676a8078fe583e464970154604051639cd07acb60e01b81525f915f51602061213b5f395f51905f52916001600160a01b0390911690639cd07acb9061140890879087906004016120de565b6020604051808303815f875af1158015611424573d5f5f3e3d5ffd5b505050506040513d601f19601f820116820180604052508101906112259190611fb0565b5f51602061213b5f395f51905f528054604051635ca4b5b160e11b8152600481018590526001600160a01b0384811660248301529091169063b9496b62906044015b5f604051808303815f87803b1580156114a1575f5ffd5b505af11580156114b3573d5f5f3e3d5ffd5b50505050505050565b5f5f82156114cf5750600160f81b6114d2565b505f5b7f9e7b61f58c47dc699ac88507c4f5bb9f121c03808c5676a8078fe583e46497015460405163f77f3f1d60e01b815260048101879052602481018690526001600160f81b0319831660448201525f51602061213b5f395f51905f52916001600160a01b03169063f77f3f1d906064015b6020604051808303815f875af115801561155e573d5f5f3e3d5ffd5b505050506040513d601f19601f820116820180604052508101906115829190611fb0565b9695505050505050565b5f5f821561159f5750600160f81b6115a2565b505f5b7f9e7b61f58c47dc699ac88507c4f5bb9f121c03808c5676a8078fe583e464970154604051630afe14ad60e31b815260048101879052602481018690526001600160f81b0319831660448201525f51602061213b5f395f51905f52916001600160a01b0316906357f0a56890606401611542565b5f600160f81b815f51602061213b5f395f51905f526001810154604051635a53accb60e01b815260048101889052602481018790526001600160f81b0319851660448201529192506001600160a01b031690635a53accb906064016020604051808303815f875af115801561168d573d5f5f3e3d5ffd5b505050506040513d601f19601f8201168201806040525081019061139d9190611fb0565b5f805f51602061213b5f395f51905f526001810154604051637702dcff60e01b81526004810188905260248101879052604481018690529192506001600160a01b031690637702dcff906064016020604051808303815f875af115801561168d573d5f5f3e3d5ffd5b7f9e7b61f58c47dc699ac88507c4f5bb9f121c03808c5676a8078fe583e46497015460405163045fc19560e11b81525f915f51602061213b5f395f51905f52916001600160a01b03909116906308bf832a906117809088903390899089906004016120f2565b6020604051808303815f875af115801561179c573d5f5f3e3d5ffd5b505050506040513d601f19601f820116820180604052508101906117c09190611fb0565b8154604051630f8e573b60e21b8152600481018390523360248201529193506001600160a01b031690633e395cec906044015f604051808303815f87803b158015611809575f5ffd5b505af115801561181b573d5f5f3e3d5ffd5b50505050509392505050565b5f805f51602061213b5f395f51905f5280546040516382027b6d60e01b8152600481018790526001600160a01b0386811660248301529293509116906382027b6d90604401602060405180830381865afa158015611887573d5f5f3e3d5ffd5b505050506040513d601f19601f8201168201806040525081019061122591906120af565b5f5f82156118be5750600160f81b6118c1565b505f5b7f9e7b61f58c47dc699ac88507c4f5bb9f121c03808c5676a8078fe583e46497015460405163022f65e760e31b815260048101879052602481018690526001600160f81b0319831660448201525f51602061213b5f395f51905f52916001600160a01b03169063117b2f3890606401611542565b6040805160018082528183019092525f51602061213b5f395f51905f52915f91906020808301908036833701905050905082815f8151811061197957611979611d89565b60209081029190910101528154604051637d6e912360e11b81526001600160a01b039091169063fadd22469061148a908490600401612128565b5f602082840312156119c3575f5ffd5b5035919050565b634e487b7160e01b5f52604160045260245ffd5b5f82601f8301126119ed575f5ffd5b813567ffffffffffffffff811115611a0757611a076119ca565b604051601f8201601f19908116603f0116810167ffffffffffffffff81118282101715611a3657611a366119ca565b604052818152838201602001851015611a4d575f5ffd5b816020850160208301375f918101602001919091529392505050565b5f5f5f60608486031215611a7b575f5ffd5b83359250602084013567ffffffffffffffff811115611a98575f5ffd5b611aa4868287016119de565b925050604084013567ffffffffffffffff811115611ac0575f5ffd5b611acc868287016119de565b9150509250925092565b5f5f83601f840112611ae6575f5ffd5b50813567ffffffffffffffff811115611afd575f5ffd5b602083019150836020828501011115611b14575f5ffd5b9250929050565b67ffffffffffffffff81168114611b30575f5ffd5b50565b5f5f5f5f5f5f60808789031215611b48575f5ffd5b863567ffffffffffffffff811115611b5e575f5ffd5b611b6a89828a01611ad6565b909750955050602087013567ffffffffffffffff811115611b89575f5ffd5b611b9589828a01611ad6565b9095509350506040870135611ba981611b1b565b91506060870135611bb981611b1b565b809150509295509295509295565b5f5f60408385031215611bd8575f5ffd5b8235915060208301356001600160a01b0381168114611bf5575f5ffd5b809150509250929050565b5f5f5f5f5f60808688031215611c14575f5ffd5b853594506020860135935060408601359250606086013567ffffffffffffffff811115611c3f575f5ffd5b611c4b88828901611ad6565b969995985093965092949392505050565b5f5f60408385031215611c6d575f5ffd5b82359150602083013560048110611bf5575f5ffd5b5f81518084528060208401602086015e5f602082860101526020601f19601f83011685010191505092915050565b634e487b7160e01b5f52602160045260245ffd5b60048110611cd457611cd4611cb0565b9052565b61014081525f611cec61014083018d611c82565b8281036020840152611cfe818d611c82565b91505067ffffffffffffffff8a16604083015267ffffffffffffffff8916606083015260038810611d3157611d31611cb0565b876080830152611d4460a0830188611cc4565b63ffffffff861660c083015267ffffffffffffffff851660e083015267ffffffffffffffff84166101008301528215156101208301529b9a5050505050505050505050565b634e487b7160e01b5f52603260045260245ffd5b5f5f60408385031215611dae575f5ffd5b8251611db981611b1b565b6020840151909250611bf581611b1b565b634e487b7160e01b5f52601160045260245ffd5b5f60018201611def57611def611dca565b5060010190565b600181811c90821680611e0a57607f821691505b602082108103611e2857634e487b7160e01b5f52602260045260245ffd5b50919050565b601f821115611e7557805f5260205f20601f840160051c81016020851015611e535750805b601f840160051c820191505b81811015611e72575f8155600101611e5f565b50505b505050565b67ffffffffffffffff831115611e9257611e926119ca565b611ea683611ea08354611df6565b83611e2e565b5f601f841160018114611ed7575f8515611ec05750838201355b5f19600387901b1c1916600186901b178355611e72565b5f83815260208120601f198716915b82811015611f065786850135825560209485019460019092019101611ee6565b5086821015611f22575f1960f88860031b161c19848701351681555b505060018560011b0183555050505050565b81835281816020850137505f828201602090810191909152601f909101601f19169091010190565b608081525f611f6f60808301888a611f34565b8281036020840152611f82818789611f34565b91505067ffffffffffffffff8416604083015267ffffffffffffffff83166060830152979650505050505050565b5f60208284031215611fc0575f5ffd5b5051919050565b67ffffffffffffffff81811683821601908111156110cb576110cb611dca565b5f63ffffffff821663ffffffff810361200257612002611dca565b60010192915050565b602081016110cb8284611cc4565b5f8151808452602084019350602083015f5b8281101561204957815186526020958601959091019060010161202b565b5093949350505050565b604081525f6120656040830185612019565b828103602084015261139d8185611c82565b606081525f6120896060830186612019565b828103602084015261209b8186611c82565b905082810360408401526115828185611c82565b5f602082840312156120bf575f5ffd5b81518015158114611191575f5ffd5b60548110611cd457611cd4611cb0565b8281526040810161119160208301846120ce565b8481526001600160a01b0384166020820152608060408201525f6121196080830185611c82565b905061139d60608301846120ce565b602081525f611191602083018461201956fe9e7b61f58c47dc699ac88507c4f5bb9f121c03808c5676a8078fe583e4649700a164736f6c634300081b000a",
  "devdoc": {
    "kind": "dev",
    "methods": {
      "placeBet(uint256,bytes32,bytes32,bytes)": {
        "details": "User must have called token.setOperator(thisContract, validUntil) beforehand",
        "params": {
          "encryptedAmount": "Encrypted bet amount in cMISHA (6 decimal units)",
          "encryptedVote": "Encrypted boolean: true = YES, false = NO",
          "inputProof": "ZK proof for both encrypted inputs",
          "marketId": "The market to bet on"
        }
      },
      "resolveMarket(uint256,uint8)": {
        "details": "Makes pool totals publicly decryptable for payout computation"
      },
      "submitVerifiedTotals(uint256,bytes,bytes)": {
        "details": "Permissionless  anyone can relay, contract verifies KMS proof"
      }
    },
    "title": "MishaMarket  Confidential Prediction Market",
    "version": 1
  },
  "userdoc": {
    "errors": {
      "InvalidKMSSignatures()": [
        {
          "notice": "Returned if the returned KMS signatures are not valid."
        }
      ],
      "SenderNotAllowedToUseHandle(bytes32,address)": [
        {
          "notice": "Returned if the sender is not allowed to use the handle."
        }
      ],
      "ZamaProtocolUnsupported()": [
        {
          "notice": "Returned if the Zama protocol is not supported on the current chain"
        }
      ]
    },
    "events": {
      "PublicDecryptionVerified(bytes32[],bytes)": {
        "notice": "This event is emitted when public decryption has been successfully verified."
      }
    },
    "kind": "user",
    "methods": {
      "claimPayout(uint256)": {
        "notice": "Claim payout after market resolution"
      },
      "createMarket(string,string,uint64,uint64)": {
        "notice": "Create a new prediction market (admin/Misha only)"
      },
      "getMarket(uint256)": {
        "notice": "Get market details (public fields only)"
      },
      "getMarketHandles(uint256)": {
        "notice": "Get encrypted pool total handles as bytes32 (for off-chain decryption)"
      },
      "getUserBet(uint256,address)": {
        "notice": "Get user's encrypted bet handles (only user can decrypt)"
      },
      "placeBet(uint256,bytes32,bytes32,bytes)": {
        "notice": "Place an encrypted bet on a market"
      },
      "resolveMarket(uint256,uint8)": {
        "notice": "Resolve market with a result (admin/oracle only)"
      },
      "submitVerifiedTotals(uint256,bytes,bytes)": {
        "notice": "Submit KMS-verified decrypted totals"
      }
    },
    "notice": "Misha the cat creates markets, users place encrypted bets, pool splits among winners",
    "version": 1
  },
  "storageLayout": {
    "storage": [
      {
        "astId": 46014,
        "contract": "contracts/MishaMarket.sol:MishaMarket",
        "label": "token",
        "offset": 0,
        "slot": "0",
        "type": "t_contract(IERC7984)41328"
      },
      {
        "astId": 46016,
        "contract": "contracts/MishaMarket.sol:MishaMarket",
        "label": "admin",
        "offset": 0,
        "slot": "1",
        "type": "t_address"
      },
      {
        "astId": 46018,
        "contract": "contracts/MishaMarket.sol:MishaMarket",
        "label": "marketCount",
        "offset": 0,
        "slot": "2",
        "type": "t_uint256"
      },
      {
        "astId": 46023,
        "contract": "contracts/MishaMarket.sol:MishaMarket",
        "label": "_markets",
        "offset": 0,
        "slot": "3",
        "type": "t_mapping(t_uint256,t_struct(Market)46000_storage)"
      },
      {
        "astId": 46030,
        "contract": "contracts/MishaMarket.sol:MishaMarket",
        "label": "_bets",
        "offset": 0,
        "slot": "4",
        "type": "t_mapping(t_uint256,t_mapping(t_address,t_struct(Bet)46011_storage))"
      }
    ],
    "types": {
      "t_address": {
        "encoding": "inplace",
        "label": "address",
        "numberOfBytes": "20"
      },
      "t_bool": {
        "encoding": "inplace",
        "label": "bool",
        "numberOfBytes": "1"
      },
      "t_contract(IERC7984)41328": {
        "encoding": "inplace",
        "label": "contract IERC7984",
        "numberOfBytes": "20"
      },
      "t_enum(MarketResult)45971": {
        "encoding": "inplace",
        "label": "enum MishaMarket.MarketResult",
        "numberOfBytes": "1"
      },
      "t_enum(MarketStatus)45966": {
        "encoding": "inplace",
        "label": "enum MishaMarket.MarketStatus",
        "numberOfBytes": "1"
      },
      "t_mapping(t_address,t_struct(Bet)46011_storage)": {
        "encoding": "mapping",
        "key": "t_address",
        "label": "mapping(address => struct MishaMarket.Bet)",
        "numberOfBytes": "32",
        "value": "t_struct(Bet)46011_storage"
      },
      "t_mapping(t_uint256,t_mapping(t_address,t_struct(Bet)46011_storage))": {
        "encoding": "mapping",
        "key": "t_uint256",
        "label": "mapping(uint256 => mapping(address => struct MishaMarket.Bet))",
        "numberOfBytes": "32",
        "value": "t_mapping(t_address,t_struct(Bet)46011_storage)"
      },
      "t_mapping(t_uint256,t_struct(Market)46000_storage)": {
        "encoding": "mapping",
        "key": "t_uint256",
        "label": "mapping(uint256 => struct MishaMarket.Market)",
        "numberOfBytes": "32",
        "value": "t_struct(Market)46000_storage"
      },
      "t_string_storage": {
        "encoding": "bytes",
        "label": "string",
        "numberOfBytes": "32"
      },
      "t_struct(Bet)46011_storage": {
        "encoding": "inplace",
        "label": "struct MishaMarket.Bet",
        "members": [
          {
            "astId": 46003,
            "contract": "contracts/MishaMarket.sol:MishaMarket",
            "label": "vote",
            "offset": 0,
            "slot": "0",
            "type": "t_userDefinedValueType(ebool)47012"
          },
          {
            "astId": 46006,
            "contract": "contracts/MishaMarket.sol:MishaMarket",
            "label": "amount",
            "offset": 0,
            "slot": "1",
            "type": "t_userDefinedValueType(euint64)47028"
          },
          {
            "astId": 46008,
            "contract": "contracts/MishaMarket.sol:MishaMarket",
            "label": "exists",
            "offset": 0,
            "slot": "2",
            "type": "t_bool"
          },
          {
            "astId": 46010,
            "contract": "contracts/MishaMarket.sol:MishaMarket",
            "label": "claimed",
            "offset": 1,
            "slot": "2",
            "type": "t_bool"
          }
        ],
        "numberOfBytes": "96"
      },
      "t_struct(Market)46000_storage": {
        "encoding": "inplace",
        "label": "struct MishaMarket.Market",
        "members": [
          {
            "astId": 45973,
            "contract": "contracts/MishaMarket.sol:MishaMarket",
            "label": "title",
            "offset": 0,
            "slot": "0",
            "type": "t_string_storage"
          },
          {
            "astId": 45975,
            "contract": "contracts/MishaMarket.sol:MishaMarket",
            "label": "metadataUri",
            "offset": 0,
            "slot": "1",
            "type": "t_string_storage"
          },
          {
            "astId": 45977,
            "contract": "contracts/MishaMarket.sol:MishaMarket",
            "label": "votingEndsAt",
            "offset": 0,
            "slot": "2",
            "type": "t_uint64"
          },
          {
            "astId": 45979,
            "contract": "contracts/MishaMarket.sol:MishaMarket",
            "label": "resolutionDeadline",
            "offset": 8,
            "slot": "2",
            "type": "t_uint64"
          },
          {
            "astId": 45982,
            "contract": "contracts/MishaMarket.sol:MishaMarket",
            "label": "status",
            "offset": 16,
            "slot": "2",
            "type": "t_enum(MarketStatus)45966"
          },
          {
            "astId": 45985,
            "contract": "contracts/MishaMarket.sol:MishaMarket",
            "label": "result",
            "offset": 17,
            "slot": "2",
            "type": "t_enum(MarketResult)45971"
          },
          {
            "astId": 45988,
            "contract": "contracts/MishaMarket.sol:MishaMarket",
            "label": "totalYesAmount",
            "offset": 0,
            "slot": "3",
            "type": "t_userDefinedValueType(euint64)47028"
          },
          {
            "astId": 45991,
            "contract": "contracts/MishaMarket.sol:MishaMarket",
            "label": "totalNoAmount",
            "offset": 0,
            "slot": "4",
            "type": "t_userDefinedValueType(euint64)47028"
          },
          {
            "astId": 45993,
            "contract": "contracts/MishaMarket.sol:MishaMarket",
            "label": "decryptedYesTotal",
            "offset": 0,
            "slot": "5",
            "type": "t_uint64"
          },
          {
            "astId": 45995,
            "contract": "contracts/MishaMarket.sol:MishaMarket",
            "label": "decryptedNoTotal",
            "offset": 8,
            "slot": "5",
            "type": "t_uint64"
          },
          {
            "astId": 45997,
            "contract": "contracts/MishaMarket.sol:MishaMarket",
            "label": "totalsDecrypted",
            "offset": 16,
            "slot": "5",
            "type": "t_bool"
          },
          {
            "astId": 45999,
            "contract": "contracts/MishaMarket.sol:MishaMarket",
            "label": "betCount",
            "offset": 17,
            "slot": "5",
            "type": "t_uint32"
          }
        ],
        "numberOfBytes": "192"
      },
      "t_uint256": {
        "encoding": "inplace",
        "label": "uint256",
        "numberOfBytes": "32"
      },
      "t_uint32": {
        "encoding": "inplace",
        "label": "uint32",
        "numberOfBytes": "4"
      },
      "t_uint64": {
        "encoding": "inplace",
        "label": "uint64",
        "numberOfBytes": "8"
      },
      "t_userDefinedValueType(ebool)47012": {
        "encoding": "inplace",
        "label": "ebool",
        "numberOfBytes": "32"
      },
      "t_userDefinedValueType(euint64)47028": {
        "encoding": "inplace",
        "label": "euint64",
        "numberOfBytes": "32"
      }
    }
  }
}