{
  "address": "0xD666442d7FD30E4A2F2bF3E7B3d990AFc47297C6",
  "abi": [
    {
      "inputs": [
        {
          "internalType": "address",
          "name": "_confidentialToken",
          "type": "address"
        }
      ],
      "stateMutability": "nonpayable",
      "type": "constructor"
    },
    {
      "inputs": [],
      "name": "AlreadyBet",
      "type": "error"
    },
    {
      "inputs": [],
      "name": "AlreadyClaimed",
      "type": "error"
    },
    {
      "inputs": [],
      "name": "InvalidResult",
      "type": "error"
    },
    {
      "inputs": [],
      "name": "InvalidTimestamps",
      "type": "error"
    },
    {
      "inputs": [],
      "name": "MarketNotActive",
      "type": "error"
    },
    {
      "inputs": [],
      "name": "MarketNotResolved",
      "type": "error"
    },
    {
      "inputs": [],
      "name": "NoBet",
      "type": "error"
    },
    {
      "inputs": [],
      "name": "OnlyAdmin",
      "type": "error"
    },
    {
      "inputs": [
        {
          "internalType": "bytes32",
          "name": "handle",
          "type": "bytes32"
        },
        {
          "internalType": "address",
          "name": "sender",
          "type": "address"
        }
      ],
      "name": "SenderNotAllowedToUseHandle",
      "type": "error"
    },
    {
      "inputs": [],
      "name": "TotalsNotDecrypted",
      "type": "error"
    },
    {
      "inputs": [],
      "name": "VotingEnded",
      "type": "error"
    },
    {
      "inputs": [],
      "name": "VotingNotEnded",
      "type": "error"
    },
    {
      "inputs": [],
      "name": "ZamaProtocolUnsupported",
      "type": "error"
    },
    {
      "anonymous": false,
      "inputs": [
        {
          "indexed": true,
          "internalType": "uint256",
          "name": "marketId",
          "type": "uint256"
        },
        {
          "indexed": true,
          "internalType": "address",
          "name": "user",
          "type": "address"
        }
      ],
      "name": "BetPlaced",
      "type": "event"
    },
    {
      "anonymous": false,
      "inputs": [
        {
          "indexed": true,
          "internalType": "uint256",
          "name": "marketId",
          "type": "uint256"
        },
        {
          "indexed": false,
          "internalType": "string",
          "name": "title",
          "type": "string"
        },
        {
          "indexed": false,
          "internalType": "uint64",
          "name": "votingEndsAt",
          "type": "uint64"
        },
        {
          "indexed": false,
          "internalType": "uint64",
          "name": "resolutionDeadline",
          "type": "uint64"
        }
      ],
      "name": "MarketCreated",
      "type": "event"
    },
    {
      "anonymous": false,
      "inputs": [
        {
          "indexed": true,
          "internalType": "uint256",
          "name": "marketId",
          "type": "uint256"
        },
        {
          "indexed": false,
          "internalType": "enum MishaMarket.MarketResult",
          "name": "result",
          "type": "uint8"
        }
      ],
      "name": "MarketResolved",
      "type": "event"
    },
    {
      "anonymous": false,
      "inputs": [
        {
          "indexed": true,
          "internalType": "uint256",
          "name": "marketId",
          "type": "uint256"
        },
        {
          "indexed": true,
          "internalType": "address",
          "name": "user",
          "type": "address"
        }
      ],
      "name": "PayoutClaimed",
      "type": "event"
    },
    {
      "anonymous": false,
      "inputs": [
        {
          "indexed": true,
          "internalType": "uint256",
          "name": "marketId",
          "type": "uint256"
        },
        {
          "indexed": false,
          "internalType": "uint64",
          "name": "yesTotal",
          "type": "uint64"
        },
        {
          "indexed": false,
          "internalType": "uint64",
          "name": "noTotal",
          "type": "uint64"
        }
      ],
      "name": "TotalsDecrypted",
      "type": "event"
    },
    {
      "inputs": [],
      "name": "admin",
      "outputs": [
        {
          "internalType": "address",
          "name": "",
          "type": "address"
        }
      ],
      "stateMutability": "view",
      "type": "function"
    },
    {
      "inputs": [
        {
          "internalType": "uint256",
          "name": "marketId",
          "type": "uint256"
        }
      ],
      "name": "claimPayout",
      "outputs": [],
      "stateMutability": "nonpayable",
      "type": "function"
    },
    {
      "inputs": [],
      "name": "confidentialProtocolId",
      "outputs": [
        {
          "internalType": "uint256",
          "name": "",
          "type": "uint256"
        }
      ],
      "stateMutability": "view",
      "type": "function"
    },
    {
      "inputs": [
        {
          "internalType": "string",
          "name": "title",
          "type": "string"
        },
        {
          "internalType": "uint64",
          "name": "votingEndsAt",
          "type": "uint64"
        },
        {
          "internalType": "uint64",
          "name": "resolutionDeadline",
          "type": "uint64"
        }
      ],
      "name": "createMarket",
      "outputs": [
        {
          "internalType": "uint256",
          "name": "marketId",
          "type": "uint256"
        }
      ],
      "stateMutability": "nonpayable",
      "type": "function"
    },
    {
      "inputs": [
        {
          "internalType": "uint256",
          "name": "marketId",
          "type": "uint256"
        }
      ],
      "name": "getMarket",
      "outputs": [
        {
          "internalType": "string",
          "name": "title",
          "type": "string"
        },
        {
          "internalType": "uint64",
          "name": "votingEndsAt",
          "type": "uint64"
        },
        {
          "internalType": "uint64",
          "name": "resolutionDeadline",
          "type": "uint64"
        },
        {
          "internalType": "enum MishaMarket.MarketStatus",
          "name": "status",
          "type": "uint8"
        },
        {
          "internalType": "enum MishaMarket.MarketResult",
          "name": "result",
          "type": "uint8"
        },
        {
          "internalType": "uint32",
          "name": "betCount",
          "type": "uint32"
        },
        {
          "internalType": "uint64",
          "name": "decryptedYesTotal",
          "type": "uint64"
        },
        {
          "internalType": "uint64",
          "name": "decryptedNoTotal",
          "type": "uint64"
        },
        {
          "internalType": "bool",
          "name": "totalsDecrypted",
          "type": "bool"
        }
      ],
      "stateMutability": "view",
      "type": "function"
    },
    {
      "inputs": [
        {
          "internalType": "uint256",
          "name": "marketId",
          "type": "uint256"
        },
        {
          "internalType": "address",
          "name": "user",
          "type": "address"
        }
      ],
      "name": "getUserBet",
      "outputs": [
        {
          "internalType": "ebool",
          "name": "vote",
          "type": "bytes32"
        },
        {
          "internalType": "euint64",
          "name": "amount",
          "type": "bytes32"
        },
        {
          "internalType": "bool",
          "name": "exists",
          "type": "bool"
        },
        {
          "internalType": "bool",
          "name": "claimed",
          "type": "bool"
        }
      ],
      "stateMutability": "view",
      "type": "function"
    },
    {
      "inputs": [],
      "name": "marketCount",
      "outputs": [
        {
          "internalType": "uint256",
          "name": "",
          "type": "uint256"
        }
      ],
      "stateMutability": "view",
      "type": "function"
    },
    {
      "inputs": [
        {
          "internalType": "uint256",
          "name": "marketId",
          "type": "uint256"
        },
        {
          "internalType": "externalEbool",
          "name": "encryptedVote",
          "type": "bytes32"
        },
        {
          "internalType": "externalEuint64",
          "name": "encryptedAmount",
          "type": "bytes32"
        },
        {
          "internalType": "bytes",
          "name": "inputProof",
          "type": "bytes"
        }
      ],
      "name": "placeBet",
      "outputs": [],
      "stateMutability": "nonpayable",
      "type": "function"
    },
    {
      "inputs": [
        {
          "internalType": "uint256",
          "name": "marketId",
          "type": "uint256"
        },
        {
          "internalType": "enum MishaMarket.MarketResult",
          "name": "result",
          "type": "uint8"
        }
      ],
      "name": "resolveMarket",
      "outputs": [],
      "stateMutability": "nonpayable",
      "type": "function"
    },
    {
      "inputs": [
        {
          "internalType": "uint256",
          "name": "marketId",
          "type": "uint256"
        },
        {
          "internalType": "uint64",
          "name": "yesTotal",
          "type": "uint64"
        },
        {
          "internalType": "uint64",
          "name": "noTotal",
          "type": "uint64"
        }
      ],
      "name": "setDecryptedTotals",
      "outputs": [],
      "stateMutability": "nonpayable",
      "type": "function"
    },
    {
      "inputs": [],
      "name": "token",
      "outputs": [
        {
          "internalType": "contract ConfidentialMisha",
          "name": "",
          "type": "address"
        }
      ],
      "stateMutability": "view",
      "type": "function"
    }
  ],
  "transactionHash": "0x673fb12da2ac159a2925fc7d48eff35b72e0a383f80660cc6b22eba43ba46d3c",
  "args": [
    "0x8327CE076DE89A8140cfEa67A939f43F7225638B"
  ],
  "numDeployments": 1,
  "solcInputHash": "045dcd64a2453ddeda4b6127bd8c79d9",
  "bytecode": "0x608060405234801561000f575f5ffd5b50604051611fbd380380611fbd83398101604081905261002e916102c3565b6100e2610039610114565b80517f9e7b61f58c47dc699ac88507c4f5bb9f121c03808c5676a8078fe583e464970080546001600160a01b03199081166001600160a01b039384161790915560208301517f9e7b61f58c47dc699ac88507c4f5bb9f121c03808c5676a8078fe583e46497018054831691841691909117905560408301517f9e7b61f58c47dc699ac88507c4f5bb9f121c03808c5676a8078fe583e46497028054909216921691909117905550565b60018054336001600160a01b0319918216179091555f80549091166001600160a01b03929092169190911790556102f0565b604080516060810182525f8082526020820181905291810191909152466001036101ad575060408051606080820183525f8083526020808401829052928401528251908101835273ca2e8f1f656cd25c01f05d0b243ab1ecd4a8ffb6815273d82385dada1ae3e969447f20a3164f6213100e75918101919091527377627828a55156b04ac0dc0eb30467f1a552bb039181019190915290565b4662aa36a70361022c575060408051606080820183525f8083526020808401829052928401528251908101835273f0ffdc93b7e186bc2f8cb3daa75d86d1930a433d81527392c920834ec8941d2c77d188936e1f7a6f49c1279181019190915273be0e383937d564d7ff0bc3b46c51f0bf8d5c311a9181019190915290565b46617a69036102aa575060408051606080820183525f808352602080840182905292840152825190810183527350157cffd6bbfa2dece204a89ec419c23ef5755d815273e3a9105a3a932253a70f126eb1e3b589c643dd249181019190915273901f8942346f7ab3a01f6d7613119bca447bb0309181019190915290565b6040516373cac13b60e01b815260040160405180910390fd5b5f602082840312156102d3575f5ffd5b81516001600160a01b03811681146102e9575f5ffd5b9392505050565b611cc0806102fd5f395ff3fe608060405234801561000f575f5ffd5b50600436106100c4575f3560e01c8063d35f34321161007d578063ec97908211610058578063ec979082146101e3578063f851a440146101ec578063fc0c546a14610217575f5ffd5b8063d35f343214610195578063df55406e146101a8578063eb44fdd3146101bb575f5ffd5b80638a69614e116100ad5780638a69614e146100f85780639d1049561461010b578063c03fb87c1461011e575f5ffd5b806357a1ab47146100c85780638927b030146100dd575b5f5ffd5b6100db6100d63660046116fb565b610229565b005b6100e561032a565b6040519081526020015b60405180910390f35b6100db610106366004611734565b610338565b6100e5610119366004611790565b6106ac565b61016d61012c3660046117f1565b5f9182526004602090815260408084206001600160a01b03939093168452919052902080546001820154600290920154909260ff8083169261010090041690565b60408051948552602085019390935290151591830191909152151560608201526080016100ef565b6100db6101a336600461182a565b61083c565b6100db6101b6366004611886565b610bbc565b6101ce6101c9366004611734565b610d4d565b6040516100ef99989796959493929190611902565b6100e560025481565b6001546101ff906001600160a01b031681565b6040516001600160a01b0390911681526020016100ef565b5f546101ff906001600160a01b031681565b6001546001600160a01b0316331461025457604051634755657960e01b815260040160405180910390fd5b5f838152600360205260409020600180820154600160801b900460ff166002811115610282576102826118da565b146102a05760405163174b639360e11b815260040160405180910390fd5b600481018054600160801b67ffffffffffffffff8681166fffffffffffffffffffffffffffffffff199093168317600160401b9187169182021760ff60801b19169190911790925560408051918252602082019290925285917f6be45addf48c5ff36b13cbf3fbc0170b0c7b6cad49f8ea4bb613c0f82ca09f82910160405180910390a250505050565b5f610333610e6e565b905090565b5f8181526004602090815260408083203384529091529020600281015460ff166103755760405163361fa78160e21b815260040160405180910390fd5b6002810154610100900460ff16156103a057604051630c8d9eab60e31b815260040160405180910390fd5b5f82815260036020819052604090912060028301805461ff001916610100179055906001820154600160881b900460ff1660038111156103e2576103e26118da565b0361049d5760018201545f5461040191906001600160a01b0316610ea2565b505f546001830154604051635514b54960e11b815230600482015233602482015260448101919091526001600160a01b039091169063aa296a92906064015f604051808303815f87803b158015610456575f5ffd5b505af1158015610468573d5f5f3e3d5ffd5b50506040513392508591507f3d22404c1cc25bf89323ad45c5293c2188927fa7850f0f796fefd2deda0f7ba2905f90a3505050565b600180820154600160801b900460ff1660028111156104be576104be6118da565b146104dc5760405163174b639360e11b815260040160405180910390fd5b6004810154600160801b900460ff16610508576040516324d1406d60e21b815260040160405180910390fd5b60048101545f9061052c9067ffffffffffffffff600160401b8204811691166119aa565b90505f600180840154600160881b900460ff166003811115610550576105506118da565b14610570576004830154600160401b900467ffffffffffffffff16610580565b600483015467ffffffffffffffff165b90505f6105ad600180860154600160881b900460ff1660038111156105a7576105a76118da565b14610ec7565b90505f6105bd865f015483610ee2565b90505f6105ce876001015486610f17565b90505f6105db8286610f3f565b90505f6105e75f610f65565b90505f6105f5858484610f7b565b5f5490915061060e9082906001600160a01b0316610ea2565b505f54604051635514b54960e11b8152306004820152336024820152604481018390526001600160a01b039091169063aa296a92906064015f604051808303815f87803b15801561065d575f5ffd5b505af115801561066f573d5f5f3e3d5ffd5b50506040513392508d91507f3d22404c1cc25bf89323ad45c5293c2188927fa7850f0f796fefd2deda0f7ba2905f90a35050505050505050505050565b6001545f906001600160a01b031633146106d957604051634755657960e01b815260040160405180910390fd5b4267ffffffffffffffff168367ffffffffffffffff161161070d5760405163d22806e360e01b815260040160405180910390fd5b8267ffffffffffffffff168267ffffffffffffffff1610156107425760405163d22806e360e01b815260040160405180910390fd5b50600280549081905f610754836119ca565b90915550505f81815260036020526040902080610772868883611a7a565b5060018101805467ffffffffffffffff858116600160401b026fffffffffffffffffffffffffffffffff19909216908716171771ffff00000000000000000000000000000000191690556107c55f610f65565b60028201556107d35f610f65565b600382015560028101546107e690610fc2565b506107f48160030154610fc2565b50817f785082962bfd64e38506cbe95ca44442a92df2593c691c86beb4b567a88f19a78787878760405161082b9493929190611b34565b60405180910390a250949350505050565b5f858152600360205260408120906001820154600160801b900460ff16600281111561086a5761086a6118da565b1461088857604051635a90bb8d60e11b815260040160405180910390fd5b600181015467ffffffffffffffff90811642909116106108bb57604051637a19ed0560e01b815260040160405180910390fd5b5f86815260046020908152604080832033845290915290206002015460ff16156108f8576040516354103a1760e11b815260040160405180910390fd5b5f6109388685858080601f0160208091040260200160405190810160405280939291908181526020018383808284375f92019190915250610fe292505050565b90505f61097a8686868080601f0160208091040260200160405190810160405280939291908181526020018383808284375f9201919091525061103292505050565b5f549091506109939082906001600160a01b0316610ea2565b505f54604051635514b54960e11b8152336004820152306024820152604481018390526001600160a01b039091169063aa296a92906064015f604051808303815f87803b1580156109e2575f5ffd5b505af11580156109f4573d5f5f3e3d5ffd5b505050505f610a025f610f65565b90505f610a10848484610f7b565b90505f610a1e858486610f7b565b9050610a2e866002015483611047565b60028701556003860154610a429082611047565b60038701556002860154610a5590610fc2565b50610a638660030154610fc2565b5060405180608001604052808681526020018581526020016001151581526020015f151581525060045f8d81526020019081526020015f205f336001600160a01b03166001600160a01b031681526020019081526020015f205f820151815f0155602082015181600101556040820151816002015f6101000a81548160ff02191690831515021790555060608201518160020160016101000a81548160ff021916908315150217905550905050610b1985611075565b50610b248533611084565b50610b2e84610fc2565b50610b398433610ea2565b50600486018054600160881b900463ffffffff16906011610b5983611b7b565b91906101000a81548163ffffffff021916908363ffffffff16021790555050336001600160a01b03168b7f71db8f0b94a6ae898ff1583920da121c8f18ea26ad96353276843685325262e160405160405180910390a35050505050505050505050565b6001546001600160a01b03163314610be757604051634755657960e01b815260040160405180910390fd5b5f828152600360205260408120906001820154600160801b900460ff166002811115610c1557610c156118da565b14610c3357604051635a90bb8d60e11b815260040160405180910390fd5b5f826003811115610c4657610c466118da565b03610c635760405162f8b33f60e71b815260040160405180910390fd5b60018101805483919071ff00000000000000000000000000000000001916600160881b836003811115610c9857610c986118da565b02179055506003826003811115610cb157610cb16118da565b03610cdd5760018101805460ff60801b1916700200000000000000000000000000000000179055610d10565b60018101805460ff60801b1916600160801b1790556002810154610d0090611093565b50610d0e8160030154611093565b505b827f739f283563fb51ab6b89ee95d937b2e63a6cfcb83c385dbebb629f9d97bd43e683604051610d409190611b9f565b60405180910390a2505050565b5f818152600360205260408120600181015460048201548254606094938493849384938493849384938493839267ffffffffffffffff80821693600160401b808404831694600160801b80860460ff90811696600160881b9081900482169690860463ffffffff16958181169581049091169392900416908990610dd0906119f6565b80601f0160208091040260200160405190810160405280929190818152602001828054610dfc906119f6565b8015610e475780601f10610e1e57610100808354040283529160200191610e47565b820191905f5260205f20905b815481529060010190602001808311610e2a57829003601f168201915b50505050509850995099509950995099509950995099509950509193959799909294969850565b5f46600103610e7d5750600190565b4662aa36a703610e8e575061271190565b46617a6903610e9d57505f1990565b505f90565b5f82610eb457610eb15f610f65565b92505b610ebe83836110ae565b50815b92915050565b5f610ec182610ed6575f610ed9565b60015b60ff165f611122565b5f82610ef457610ef15f610ec7565b92505b81610f0557610f025f610ec7565b91505b610f1083835f6111c4565b9392505050565b5f82610f2957610f265f610f65565b92505b610f108367ffffffffffffffff84166001611294565b5f82610f5157610f4e5f610f65565b92505b610f108367ffffffffffffffff841661131e565b5f610ec18267ffffffffffffffff166005611122565b5f83610f8d57610f8a5f610ec7565b93505b82610f9e57610f9b5f610f65565b92505b81610faf57610fac5f610f65565b91505b610fba8484846113d7565b949350505050565b5f81610fd457610fd15f610f65565b91505b610fde82306110ae565b5090565b5f81515f14610ffd57610ff683835f611446565b9050610ec1565b826110088133611553565b610ff657604051630276b5d960e01b81526004810182905233602482015260440160405180910390fd5b5f81515f14610ffd57610ff683836005611446565b5f82611059576110565f610f65565b92505b8161106a576110675f610f65565b91505b610f1083835f6115d7565b5f81610fd457610fd15f610ec7565b5f82610eb457610eb15f610ec7565b5f816110a5576110a25f610f65565b91505b610fde82611661565b5f516020611c945f395f51905f528054604051635ca4b5b160e11b8152600481018590526001600160a01b0384811660248301529091169063b9496b62906044015b5f604051808303815f87803b158015611107575f5ffd5b505af1158015611119573d5f5f3e3d5ffd5b50505050505050565b7f9e7b61f58c47dc699ac88507c4f5bb9f121c03808c5676a8078fe583e464970154604051639cd07acb60e01b81525f915f516020611c945f395f51905f52916001600160a01b0390911690639cd07acb906111849087908790600401611bbd565b6020604051808303815f875af11580156111a0573d5f5f3e3d5ffd5b505050506040513d601f19601f82011682018060405250810190610fba9190611bd1565b5f5f82156111d75750600160f81b6111da565b505f5b7f9e7b61f58c47dc699ac88507c4f5bb9f121c03808c5676a8078fe583e46497015460405163f77f3f1d60e01b815260048101879052602481018690526001600160f81b0319831660448201525f516020611c945f395f51905f52916001600160a01b03169063f77f3f1d906064015b6020604051808303815f875af1158015611266573d5f5f3e3d5ffd5b505050506040513d601f19601f8201168201806040525081019061128a9190611bd1565b9695505050505050565b5f5f82156112a75750600160f81b6112aa565b505f5b7f9e7b61f58c47dc699ac88507c4f5bb9f121c03808c5676a8078fe583e464970154604051630afe14ad60e31b815260048101879052602481018690526001600160f81b0319831660448201525f516020611c945f395f51905f52916001600160a01b0316906357f0a5689060640161124a565b7f9e7b61f58c47dc699ac88507c4f5bb9f121c03808c5676a8078fe583e464970154604051635a53accb60e01b81526004810184905260248101839052600160f81b604482018190525f9290915f516020611c945f395f51905f52916001600160a01b031690635a53accb906064015b6020604051808303815f875af11580156113aa573d5f5f3e3d5ffd5b505050506040513d601f19601f820116820180604052508101906113ce9190611bd1565b95945050505050565b7f9e7b61f58c47dc699ac88507c4f5bb9f121c03808c5676a8078fe583e464970154604051637702dcff60e01b81526004810185905260248101849052604481018390525f915f516020611c945f395f51905f52916001600160a01b0390911690637702dcff9060640161138e565b7f9e7b61f58c47dc699ac88507c4f5bb9f121c03808c5676a8078fe583e46497015460405163045fc19560e11b81525f915f516020611c945f395f51905f52916001600160a01b03909116906308bf832a906114ac908890339089908990600401611be8565b6020604051808303815f875af11580156114c8573d5f5f3e3d5ffd5b505050506040513d601f19601f820116820180604052508101906114ec9190611bd1565b8154604051630f8e573b60e21b8152600481018390523360248201529193506001600160a01b031690633e395cec906044015f604051808303815f87803b158015611535575f5ffd5b505af1158015611547573d5f5f3e3d5ffd5b50505050509392505050565b5f805f516020611c945f395f51905f5280546040516382027b6d60e01b8152600481018790526001600160a01b0386811660248301529293509116906382027b6d90604401602060405180830381865afa1580156115b3573d5f5f3e3d5ffd5b505050506040513d601f19601f82011682018060405250810190610fba9190611c1e565b5f5f82156115ea5750600160f81b6115ed565b505f5b7f9e7b61f58c47dc699ac88507c4f5bb9f121c03808c5676a8078fe583e46497015460405163022f65e760e31b815260048101879052602481018690526001600160f81b0319831660448201525f516020611c945f395f51905f52916001600160a01b03169063117b2f389060640161124a565b6040805160018082528183019092525f516020611c945f395f51905f52915f91906020808301908036833701905050905082815f815181106116a5576116a5611c3d565b60209081029190910101528154604051637d6e912360e11b81526001600160a01b039091169063fadd2246906110f0908490600401611c51565b803567ffffffffffffffff811681146116f6575f5ffd5b919050565b5f5f5f6060848603121561170d575f5ffd5b8335925061171d602085016116df565b915061172b604085016116df565b90509250925092565b5f60208284031215611744575f5ffd5b5035919050565b5f5f83601f84011261175b575f5ffd5b50813567ffffffffffffffff811115611772575f5ffd5b602083019150836020828501011115611789575f5ffd5b9250929050565b5f5f5f5f606085870312156117a3575f5ffd5b843567ffffffffffffffff8111156117b9575f5ffd5b6117c58782880161174b565b90955093506117d89050602086016116df565b91506117e6604086016116df565b905092959194509250565b5f5f60408385031215611802575f5ffd5b8235915060208301356001600160a01b038116811461181f575f5ffd5b809150509250929050565b5f5f5f5f5f6080868803121561183e575f5ffd5b853594506020860135935060408601359250606086013567ffffffffffffffff811115611869575f5ffd5b6118758882890161174b565b969995985093965092949392505050565b5f5f60408385031215611897575f5ffd5b8235915060208301356004811061181f575f5ffd5b5f81518084528060208401602086015e5f602082860101526020601f19601f83011685010191505092915050565b634e487b7160e01b5f52602160045260245ffd5b600481106118fe576118fe6118da565b9052565b61012081525f61191661012083018c6118ac565b905067ffffffffffffffff8a16602083015267ffffffffffffffff8916604083015260038810611948576119486118da565b87606083015261195b60808301886118ee565b63ffffffff861660a083015267ffffffffffffffff85811660c0840152841660e08301528215156101008301529a9950505050505050505050565b634e487b7160e01b5f52601160045260245ffd5b67ffffffffffffffff8181168382160190811115610ec157610ec1611996565b5f600182016119db576119db611996565b5060010190565b634e487b7160e01b5f52604160045260245ffd5b600181811c90821680611a0a57607f821691505b602082108103611a2857634e487b7160e01b5f52602260045260245ffd5b50919050565b601f821115611a7557805f5260205f20601f840160051c81016020851015611a535750805b601f840160051c820191505b81811015611a72575f8155600101611a5f565b50505b505050565b67ffffffffffffffff831115611a9257611a926119e2565b611aa683611aa083546119f6565b83611a2e565b5f601f841160018114611ad7575f8515611ac05750838201355b5f19600387901b1c1916600186901b178355611a72565b5f83815260208120601f198716915b82811015611b065786850135825560209485019460019092019101611ae6565b5086821015611b22575f1960f88860031b161c19848701351681555b505060018560011b0183555050505050565b60608152836060820152838560808301375f608085830181019190915267ffffffffffffffff9384166020830152919092166040830152601f909201601f19160101919050565b5f63ffffffff821663ffffffff8103611b9657611b96611996565b60010192915050565b60208101610ec182846118ee565b605481106118fe576118fe6118da565b82815260408101610f106020830184611bad565b5f60208284031215611be1575f5ffd5b5051919050565b8481526001600160a01b0384166020820152608060408201525f611c0f60808301856118ac565b90506113ce6060830184611bad565b5f60208284031215611c2e575f5ffd5b81518015158114610f10575f5ffd5b634e487b7160e01b5f52603260045260245ffd5b602080825282518282018190525f918401906040840190835b81811015611c88578351835260209384019390920191600101611c6a565b50909594505050505056fe9e7b61f58c47dc699ac88507c4f5bb9f121c03808c5676a8078fe583e4649700a164736f6c634300081b000a",
  "devdoc": {
    "kind": "dev",
    "methods": {
      "placeBet(uint256,bytes32,bytes32,bytes)": {
        "params": {
          "encryptedAmount": "Encrypted bet amount in $MISHA",
          "encryptedVote": "Encrypted boolean: true = YES, false = NO",
          "inputProof": "ZK proof for both encrypted inputs",
          "marketId": "The market to bet on"
        }
      },
      "resolveMarket(uint256,uint8)": {
        "details": "Makes pool totals publicly decryptable for payout computation"
      },
      "setDecryptedTotals(uint256,uint64,uint64)": {
        "details": "Oracle reads publicly decrypted values and submits them on-chain"
      }
    },
    "title": "MishaMarket  Confidential Prediction Market",
    "version": 1
  },
  "userdoc": {
    "errors": {
      "SenderNotAllowedToUseHandle(bytes32,address)": [
        {
          "notice": "Returned if the sender is not allowed to use the handle."
        }
      ],
      "ZamaProtocolUnsupported()": [
        {
          "notice": "Returned if the Zama protocol is not supported on the current chain"
        }
      ]
    },
    "kind": "user",
    "methods": {
      "claimPayout(uint256)": {
        "notice": "Claim payout after market resolution"
      },
      "createMarket(string,uint64,uint64)": {
        "notice": "Create a new prediction market (admin/Misha only)"
      },
      "getMarket(uint256)": {
        "notice": "Get market details (public fields only)"
      },
      "getUserBet(uint256,address)": {
        "notice": "Get user's encrypted bet handles (only user can decrypt)"
      },
      "placeBet(uint256,bytes32,bytes32,bytes)": {
        "notice": "Place an encrypted bet on a market"
      },
      "resolveMarket(uint256,uint8)": {
        "notice": "Resolve market with a result (admin/oracle only)"
      },
      "setDecryptedTotals(uint256,uint64,uint64)": {
        "notice": "Set decrypted pool totals after async decryption completes"
      }
    },
    "notice": "Misha the cat creates markets, users place encrypted bets, pool splits among winners",
    "version": 1
  },
  "storageLayout": {
    "storage": [
      {
        "astId": 41817,
        "contract": "contracts/MishaMarket.sol:MishaMarket",
        "label": "token",
        "offset": 0,
        "slot": "0",
        "type": "t_contract(ConfidentialMisha)41752"
      },
      {
        "astId": 41819,
        "contract": "contracts/MishaMarket.sol:MishaMarket",
        "label": "admin",
        "offset": 0,
        "slot": "1",
        "type": "t_address"
      },
      {
        "astId": 41821,
        "contract": "contracts/MishaMarket.sol:MishaMarket",
        "label": "marketCount",
        "offset": 0,
        "slot": "2",
        "type": "t_uint256"
      },
      {
        "astId": 41826,
        "contract": "contracts/MishaMarket.sol:MishaMarket",
        "label": "_markets",
        "offset": 0,
        "slot": "3",
        "type": "t_mapping(t_uint256,t_struct(Market)41803_storage)"
      },
      {
        "astId": 41833,
        "contract": "contracts/MishaMarket.sol:MishaMarket",
        "label": "_bets",
        "offset": 0,
        "slot": "4",
        "type": "t_mapping(t_uint256,t_mapping(t_address,t_struct(Bet)41814_storage))"
      }
    ],
    "types": {
      "t_address": {
        "encoding": "inplace",
        "label": "address",
        "numberOfBytes": "20"
      },
      "t_bool": {
        "encoding": "inplace",
        "label": "bool",
        "numberOfBytes": "1"
      },
      "t_contract(ConfidentialMisha)41752": {
        "encoding": "inplace",
        "label": "contract ConfidentialMisha",
        "numberOfBytes": "20"
      },
      "t_enum(MarketResult)41776": {
        "encoding": "inplace",
        "label": "enum MishaMarket.MarketResult",
        "numberOfBytes": "1"
      },
      "t_enum(MarketStatus)41771": {
        "encoding": "inplace",
        "label": "enum MishaMarket.MarketStatus",
        "numberOfBytes": "1"
      },
      "t_mapping(t_address,t_struct(Bet)41814_storage)": {
        "encoding": "mapping",
        "key": "t_address",
        "label": "mapping(address => struct MishaMarket.Bet)",
        "numberOfBytes": "32",
        "value": "t_struct(Bet)41814_storage"
      },
      "t_mapping(t_uint256,t_mapping(t_address,t_struct(Bet)41814_storage))": {
        "encoding": "mapping",
        "key": "t_uint256",
        "label": "mapping(uint256 => mapping(address => struct MishaMarket.Bet))",
        "numberOfBytes": "32",
        "value": "t_mapping(t_address,t_struct(Bet)41814_storage)"
      },
      "t_mapping(t_uint256,t_struct(Market)41803_storage)": {
        "encoding": "mapping",
        "key": "t_uint256",
        "label": "mapping(uint256 => struct MishaMarket.Market)",
        "numberOfBytes": "32",
        "value": "t_struct(Market)41803_storage"
      },
      "t_string_storage": {
        "encoding": "bytes",
        "label": "string",
        "numberOfBytes": "32"
      },
      "t_struct(Bet)41814_storage": {
        "encoding": "inplace",
        "label": "struct MishaMarket.Bet",
        "members": [
          {
            "astId": 41806,
            "contract": "contracts/MishaMarket.sol:MishaMarket",
            "label": "vote",
            "offset": 0,
            "slot": "0",
            "type": "t_userDefinedValueType(ebool)42973"
          },
          {
            "astId": 41809,
            "contract": "contracts/MishaMarket.sol:MishaMarket",
            "label": "amount",
            "offset": 0,
            "slot": "1",
            "type": "t_userDefinedValueType(euint64)42989"
          },
          {
            "astId": 41811,
            "contract": "contracts/MishaMarket.sol:MishaMarket",
            "label": "exists",
            "offset": 0,
            "slot": "2",
            "type": "t_bool"
          },
          {
            "astId": 41813,
            "contract": "contracts/MishaMarket.sol:MishaMarket",
            "label": "claimed",
            "offset": 1,
            "slot": "2",
            "type": "t_bool"
          }
        ],
        "numberOfBytes": "96"
      },
      "t_struct(Market)41803_storage": {
        "encoding": "inplace",
        "label": "struct MishaMarket.Market",
        "members": [
          {
            "astId": 41778,
            "contract": "contracts/MishaMarket.sol:MishaMarket",
            "label": "title",
            "offset": 0,
            "slot": "0",
            "type": "t_string_storage"
          },
          {
            "astId": 41780,
            "contract": "contracts/MishaMarket.sol:MishaMarket",
            "label": "votingEndsAt",
            "offset": 0,
            "slot": "1",
            "type": "t_uint64"
          },
          {
            "astId": 41782,
            "contract": "contracts/MishaMarket.sol:MishaMarket",
            "label": "resolutionDeadline",
            "offset": 8,
            "slot": "1",
            "type": "t_uint64"
          },
          {
            "astId": 41785,
            "contract": "contracts/MishaMarket.sol:MishaMarket",
            "label": "status",
            "offset": 16,
            "slot": "1",
            "type": "t_enum(MarketStatus)41771"
          },
          {
            "astId": 41788,
            "contract": "contracts/MishaMarket.sol:MishaMarket",
            "label": "result",
            "offset": 17,
            "slot": "1",
            "type": "t_enum(MarketResult)41776"
          },
          {
            "astId": 41791,
            "contract": "contracts/MishaMarket.sol:MishaMarket",
            "label": "totalYesAmount",
            "offset": 0,
            "slot": "2",
            "type": "t_userDefinedValueType(euint64)42989"
          },
          {
            "astId": 41794,
            "contract": "contracts/MishaMarket.sol:MishaMarket",
            "label": "totalNoAmount",
            "offset": 0,
            "slot": "3",
            "type": "t_userDefinedValueType(euint64)42989"
          },
          {
            "astId": 41796,
            "contract": "contracts/MishaMarket.sol:MishaMarket",
            "label": "decryptedYesTotal",
            "offset": 0,
            "slot": "4",
            "type": "t_uint64"
          },
          {
            "astId": 41798,
            "contract": "contracts/MishaMarket.sol:MishaMarket",
            "label": "decryptedNoTotal",
            "offset": 8,
            "slot": "4",
            "type": "t_uint64"
          },
          {
            "astId": 41800,
            "contract": "contracts/MishaMarket.sol:MishaMarket",
            "label": "totalsDecrypted",
            "offset": 16,
            "slot": "4",
            "type": "t_bool"
          },
          {
            "astId": 41802,
            "contract": "contracts/MishaMarket.sol:MishaMarket",
            "label": "betCount",
            "offset": 17,
            "slot": "4",
            "type": "t_uint32"
          }
        ],
        "numberOfBytes": "160"
      },
      "t_uint256": {
        "encoding": "inplace",
        "label": "uint256",
        "numberOfBytes": "32"
      },
      "t_uint32": {
        "encoding": "inplace",
        "label": "uint32",
        "numberOfBytes": "4"
      },
      "t_uint64": {
        "encoding": "inplace",
        "label": "uint64",
        "numberOfBytes": "8"
      },
      "t_userDefinedValueType(ebool)42973": {
        "encoding": "inplace",
        "label": "ebool",
        "numberOfBytes": "32"
      },
      "t_userDefinedValueType(euint64)42989": {
        "encoding": "inplace",
        "label": "euint64",
        "numberOfBytes": "32"
      }
    }
  }
}